:020000040000FA
:100000000C9462000C948A000C948A000C948A0070
:100010000C948A000C948A000C948A000C948A0038
:100020000C948A000C948A000C948A000C94B105FC
:100030000C948A000C948A000C948A000C948A0018
:100040000C9467050C948A000C948A000C948A0026
:100050000C948A000C948A000C948A000C948A00F8
:100060000C946D060C948A00000000002400270008
:100070002A0000000000250028002B0000000000DE
:1000800023002600290004040404040404040202DA
:100090000202020203030303030301020408102007
:1000A0004080010204081020010204081020000012
:1000B0000008000201000003040700000000000027
:1000C0000000A30711241FBECFEFD8E0DEBFCDBFD5
:1000D00012E0A0E0B1E0E6E3F0E202C005900D928C
:1000E000AA30B107D9F723E0AAE0B2E001C01D921F
:1000F000A130B207E1F710E0C2E6D0E004C02197DA
:10010000FE010E94210EC136D107C9F70E94CE0719
:100110000C9419100C940000AF92BF92CF92DF9212
:10012000EF92FF920F931F93CF93DF936C017B01AC
:100130008B01040F151FEB015E01AE18BF08C0173D
:10014000D10759F06991D601ED91FC910190F081B0
:10015000E02DC6010995892B79F7C501DF91CF9173
:100160001F910F91FF90EF90DF90CF90BF90AF90D5
:100170000895FC01448155816081718181EF92E095
:100180000C948C00833081F028F4813099F0823017
:10019000A9F008958730A9F08830C9F08430B1F40F
:1001A000809180008F7D03C0809180008F77809345
:1001B0008000089584B58F7784BD089584B58F7DC0
:1001C000FBCF8091B0008F778093B000089580912D
:1001D000B0008F7DF9CFCF93DF93282F30E0F90166
:1001E000E255FF4F8491F901E656FF4FD491F90192
:1001F000EA57FF4FC491CC23A1F081110E94C200A5
:10020000EC2FF0E0EE0FFF1FE458FF4FA591B491E3
:10021000EC91ED2381E090E009F480E0DF91CF9153
:10022000089580E090E0FACF1F93CF93DF93282FBB
:1002300030E0F901E255FF4F8491F901E656FF4F96
:10024000D491F901EA57FF4FC491CC23A9F0162F9E
:1002500081110E94C200EC2FF0E0EE0FFF1FEE585C
:10026000FF4FA591B4918FB7F894EC91111108C08C
:10027000D095DE23DC938FBFDF91CF911F9108953E
:10028000DE2BF8CFCF93DF9390E0FC01E656FF4FD3
:1002900024918A579F4FFC0184918823D1F090E0EC
:1002A000880F991FFC01E859FF4FA591B491FC01FB
:1002B000EE58FF4FC591D49161110EC09FB7F894CD
:1002C0008C91E22FE0958E238C932881E223E883A2
:1002D0009FBFDF91CF9108958FB7F894EC91E22BF7
:1002E000EC938FBFF6CF3FB7F8948091CA029091FC
:1002F000CB02A091CC02B091CD0226B5A89B05C03F
:100300002F3F19F00196A11DB11D3FBFBA2FA92F94
:10031000982F8827BC01CD01620F711D811D911D91
:1003200042E0660F771F881F991F4A95D1F70895FD
:100330008F929F92AF92BF92CF92DF92EF92FF92F5
:100340004B015C010E9473016B017C010E947301EF
:100350006C197D098E099F09683E734081059105DE
:10036000A8F321E0821A9108A108B10888EEC80E0E
:1003700083E0D81EE11CF11C81149104A104B10496
:1003800029F7FF90EF90DF90CF90BF90AF909F90B4
:100390008F900895CF92DF92EF92FF92CF93DF93E9
:1003A000EC01603282E07807CCF5653B710514F012
:1003B00064EB70E0898128E830E0281B310987FD73
:1003C0003395220F331F220F331F6901330FEE08BD
:1003D000FF088A8128E532E0281B310987FD339523
:1003E000220F331F220F331F032E000C440B550B1B
:1003F0002C193D094E095F09DB0177FF02C0B0E00F
:10040000A0E00E94B10D24EB30E040E050E00E94FB
:10041000870DC20ED31EE41EF51EB601E881EC3036
:1004200070F5298188E890E0821B910927FD93955A
:10043000880F991F880F991F681779077CF02A8108
:1004400088E592E0821B910927FD9395880F991FFB
:10045000880F991F681779070CF4CB010297880F52
:10046000991F4FB7F8942E2F30E0F901EE0FFF1FC0
:10047000E20FF31FEF55FD4F928381834FBFDF9152
:10048000CF91FF90EF90DF90CF90089508951F9344
:10049000CF93DF93C1E0C0930B02882399F1D091F1
:1004A000B8001091BA008091BC008A7B8093BC0098
:1004B00060E082E10E94140160E083E10E94140187
:1004C00010927502C093740210924F0261E082E1B3
:1004D0000E94140161E083E10E9414018091B9003F
:1004E0008E7F8093B9008091B9008D7F8093B90091
:1004F00088E48093B80085E48093BC001093BA0030
:10050000D093B800DF91CF911F91089520912C02D4
:10051000260F3327331F21323105ECF42091750269
:10052000FC0190E080E0243069F082E00895A09121
:100530002C022191AC01445F5D4FA40FB52FB11D7A
:100540002C930196861798F380912C02680F609384
:100550002C0280E0089581E0089508958FEF9FEFC9
:1005600008958FEF9FEF089580910A0290E0919592
:10057000819591090895CF92DF92EF92FF920F93A8
:100580001F93CF93DF937C01CB018A0120917B02E3
:10059000222389F0EB016B01C40ED51ECC15DD05BD
:1005A00069F06991D701ED91FC910190F081E02D06
:1005B000C7010995F3CF642F0E948602C801DF911D
:1005C000CF911F910F91FF90EF90DF90CF90089502
:1005D000CF93DF931F92CDB7DEB7698320917B0263
:1005E0002223F9F020919E02203258F021E030E0E1
:1005F000FC013383228390E080E00F90DF91CF9164
:10060000089580917C02E82FF0E0E358FD4F998136
:1006100090838F5F80937C0280939E0281E090E0C4
:10062000ECCF61E0CE0101960E948602F7CFCF9217
:10063000DF92EF92FF920F931F93CF93DF93FC0112
:10064000C48121E020937B02C0939D0210927C0222
:1006500010929E028385682B8CED92E00E94E80246
:10066000D0919E02D13208F092C00E9473016B01BA
:100670007C0180917502811165C082E080937502D2
:1006800081E0809374028FEF809373021092720264
:10069000D0937102ADE7B2E0E1E5F2E080E0D8137B
:1006A00085C01092500280915002CC0FC82BC0938D
:1006B000500280914F02813009F07CC010924F02AD
:1006C0000E9473016B017C01809150028093BB00FA
:1006D0008091770290917802A0917902B0917A028C
:1006E000892B8A2B8B2B99F00E9473010091770242
:1006F000109178022091790230917A026C197D096B
:100700008E099F090617170728073907E0F180911E
:10071000BC0083FDD9CF85EC8093BC000E9473019F
:100720006B017C0180917502823009F445C0809193
:1007300073028F3F61F180917302803241F18091A9
:10074000730225C08091770290917802A09179027E
:10075000B0917A02892B8A2B8B2B09F48ACF0E94C5
:100760007301009177021091780220917902309103
:100770007A026C197D098E099F0906171707280749
:10078000390708F076CF809176020E9447021092D6
:100790007C0210929E0210927B02DF91CF911F91FA
:1007A0000F91FF90EF90DF90CF9008959D919193DE
:1007B0008F5F75CF85EEB0CF8091770290917802F0
:1007C000A0917902B0917A02892B8A2B8B2B09F4A4
:1007D000A9CF0E94730100917702109178022091B5
:1007E000790230917A026C197D098E099F090617EA
:1007F00017072807390708F095CFC5CF90E080E0AC
:100800000895FC0101900020E9F73197AF01481BE2
:10081000590BBC0181EF92E00C948C00FC018081AB
:100820009181009711F00C94C30E0895EF92FF92FE
:100830000F931F93CF93DF93EC017B0119821882F2
:100840001B821A821D821C82FB0101900020E9F7A5
:1008500031978F01061B170BB8016F5F7F4F90E038
:1008600080E00E944C0F0097B9F0998388831B8326
:100870000A832C813D81232B11F4FC0110821D83FE
:100880000C83B70188819981DF91CF911F910F91DE
:10089000FF90EF900C94121088819981009711F0CD
:1008A0000E94C30E198218821D821C821B821A822A
:1008B000DF91CF911F910F91FF90EF9008950F93CB
:1008C0001F93CF938C01C62F0E9417036C2F646077
:1008D000C8010E9417036C2F6B7FC8010E94170389
:1008E00083EC90E00197F1F7CF911F910F9108955C
:1008F0000F931F93CF938C01C62F607F61600E947E
:100900005F0480E1C89FB00111246160C8010E94AA
:100910005F0481E090E0CF911F910F910895CF93F4
:10092000C82F682F607F81EF92E00E945F0480E112
:10093000C89FB001112481EF92E0CF910C945F0425
:10094000E1EFF2E08681982F9160968389600C94A4
:100950008F04CF93DF93CDB7DEB728970FB6F89407
:10096000DEBF0FBECDBF98E0E8E0F1E0DE011196FA
:1009700001900D929A95E1F79091F902961710F473
:100980006FEF690F70E0660F771F21E030E02C0FEA
:100990003D1F620F731FFB019081890F80682896AD
:1009A0000FB6F894DEBF0FBECDBFDF91CF910C9490
:1009B0008F0481E00E948F048BE39FE10197F1F7A0
:1009C00008950E94D9048EE291E00E94010462E041
:1009D00084E00E94A90483E491E00E94010463E0A2
:1009E00083E00E94A90480E591E00C940104CF9279
:1009F000DF92EF92FF920F931F93CF93DF936C01DF
:100A00007B018A01E9010E94D90460E081E00E9433
:100A1000A904C6010E94B90061E081E00E94A90416
:100A2000C7010E94B90062E081E00E94A904C801E8
:100A30000E94B90063E081E00E94A904CE010E94F7
:100A4000B90064EF71E080E090E0DF91CF911F91F9
:100A50000F91FF90EF90DF90CF900C94980185ED6F
:100A60008093BC008091770290917802A0917902E6
:100A7000B0917A020796A11DB11D23E0B695A79506
:100A8000979587952A95D1F72091BC0024FD03C046
:100A9000109275020895409177025091780260910A
:100AA000790270917A02452B462B472B69F3009708
:100AB000A105B10541F025E32A95F1F70000019762
:100AC000A109B109E1CF809176020C9447021F92EF
:100AD0000F920FB60F9211242F933F938F939F93F2
:100AE000AF93BF938091C6029091C702A091C802B4
:100AF000B091C9023091C50223E0230F2D3758F57C
:100B00000196A11DB11D2093C5028093C60290934A
:100B1000C702A093C802B093C9028091CA02909103
:100B2000CB02A091CC02B091CD020196A11DB11DC6
:100B30008093CA029093CB02A093CC02B093CD02D3
:100B4000BF91AF919F918F913F912F910F900FBEC9
:100B50000F901F90189526E8230F0296A11DB11D36
:100B6000D2CF1F920F920FB60F9211242F933F9363
:100B70004F935F936F937F938F939F93AF93BF93A5
:100B8000CF93DF93EF93FF9380919F02C091A002D8
:100B9000D0E087FF24C010928500109284008091DD
:100BA0009F028F5F80939F0280919F02082E000C0E
:100BB000990B8C179D0724F480919F028C30C4F10F
:100BC0008091840090918500049680349C4908F4BB
:100BD0007AC08091840090918500049676C08091BF
:100BE0009F02082E000C990B8C179D07C4F6E0910C
:100BF0009F028E2FEE0F990BFC01EE0FFF1FE80FE7
:100C0000F91FEF55FD4F808186FFC9CFE0919F020C
:100C10008E2FEE0F990BFC01EE0FFF1FE80FF91F4F
:100C2000EF55FD4F808160E08F730E941401B7CFB4
:100C30002091840030918500E0919F028E2FEE0F6D
:100C4000990BFC01EE0FFF1FE80FF91FEF55FD4F49
:100C500081819281820F931F9093890080938800F5
:100C6000E0919F028E2FEE0F990BFC01EE0FFF1FFC
:100C7000E80FF91FEF55FD4F808186FF11C0E0910D
:100C80009F028E2FEE0F990BFC01EE0FFF1FE80F56
:100C9000F91FEF55FD4F808161E08F730E941401B1
:100CA000FF91EF91DF91CF91BF91AF919F918F9184
:100CB0007F916F915F914F913F912F910F900FBE58
:100CC0000F901F90189580E49CE990938900809381
:100CD00088008FEF80939F02E3CF1F920F920FB691
:100CE0000F9211242F933F934F935F936F937F93B2
:100CF0008F939F93AF93BF93EF93FF938091B9002E
:100D0000887F803609F44AC0F0F5883209F4A5C01E
:100D100018F5803109F499C0B8F4882309F4F5C0B6
:100D2000883009F492C0FF91EF91BF91AF919F91EC
:100D30008F917F916F915F914F913F912F910F9084
:100D40000FBE0F901F901895883109F486C080322D
:100D500051F78093730214C0803409F49BC040F4AF
:100D60008033B9F38833F9F68093730285ECAEC013
:100D7000803509F483C0883509F494C0883499F625
:100D80000E942F05D0CF883909F48AC038F58837FA
:100D900029F050F4883611F0803729F683E08093EB
:100DA000750210924E0255C0883809F479C0803916
:100DB00019F0803809F0B7CF80914E02803208F0E8
:100DC0006FC0E0914E0281E08E0F80934E028091C1
:100DD000BB00F0E0E25DFD4F80833BC0803B39F01B
:100DE000D0F4803A09F477C0883A09F09CCF84E0C7
:100DF0008093750210922D0210922C02F0E0E0E038
:100E0000099580912C0281110FC081E080932C0202
:100E100010920C0209C0803C09F4A8CF883C09F468
:100E2000A5CF883B09F07FCFE0912D0281E08E0FA6
:100E300080932D02F0E0E45FFD4F80818093BB0042
:100E400090912D0280912C0229C0809150028093B4
:100E5000BB0085EC8093BC0066CF909172028091BC
:100E60007102981758F5E091720281E08E0F80931D
:100E70007202F0E0EF5AFD4F8081E9CFE0917202FB
:100E800081E08E0F809372028091BB00F0E0EF5AF8
:100E9000FD4F808390917202809171029817C8F281
:100EA00085E8D8CFE091720281E08E0F80937202C4
:100EB0008091BB00F0E0EF5AFD4F80838091740277
:100EC00081115ECF81E080934F0284EA8093BC0061
:100ED0001092750228CF85EC8093BC0010927502A9
:100EE00080914E02803230F4E0914E02F0E0E25DFB
:100EF000FD4F108260914E0270E08EE292E0F0E0D1
:100F0000E0E0099510924E020ECF1092730238CF96
:100F1000FC019091A0029C3098F481E0890F8093AD
:100F2000A0029083892F90E0FC01EE0FFF1FE80FD5
:100F3000F91FEF55FD4F88EB9BE092838183089565
:100F40008FEF80830895ECEDF2E01382128288EE39
:100F500093E0A0E0B0E084839583A683B78384E127
:100F600091E091838083E1EFF2E01382128286E2C6
:100F700091E09183808387E2848384E1818784E0A8
:100F8000828713868EEE92E00E9488078BEE92E0B5
:100F90000E94880788EE92E00C948807CF93DF9335
:100FA000CDB7DEB768970FB6F894DEBF0FBECDBFE2
:100FB000789484B5826084BD84B5816084BD85B534
:100FC000826085BD85B5816085BD80916E00816040
:100FD00080936E00109281008091810082608093E6
:100FE00081008091810081608093810080918000E8
:100FF0008160809380008091B10084608093B10013
:101000008091B00081608093B00080917A0084600C
:1010100080937A0080917A00826080937A00809138
:101020007A00816080937A0080917A008068809352
:101030007A001092C1008091F60288608093F602D7
:10104000E4E0FE2EF092F90262E370E080E090E0CE
:101050000E9498016091FC0281EF92E00E941703C8
:1010600068EE73E080E090E00E94980160E381EF19
:1010700092E00E945F040BE416E4C8010197F1F7C7
:1010800060E381EF92E00E945F04C8010197F1F7ED
:1010900060E381EF92E00E945F0483E592E00197B4
:1010A000F1F760E281EF92E00E945F048091F60226
:1010B00080620E948F04F092F7028CE00E948F04FD
:1010C0000E94D90482E08093F80286E00E948F0497
:1010D00082E00E948F048BE39FE10197F1F70E9469
:1010E000E10470E060E08BEE92E00E94CA0170E0E3
:1010F00060E08EEE92E00E94CA0170E060E088EE4F
:1011000092E00E94CA0160E08EE00E94420160E02D
:101110008FE00E94420160E080E10E94420160E0B5
:1011200081E10E94420160E085E00E94420161E0AD
:1011300083E00E94420161E086E00E94420161E09A
:101140008CE00E94420161E08DE00E94420103E0D8
:1011500010E0F4E0EF2EF12CACE34A2E512C72E3B8
:10116000672E712C80E10E94EB00019709F0C7C443
:101170006FE571E0CE0143960E94160464E671E0CB
:10118000CE010D960E9416046BE671E0CE01079623
:101190000E9416046FE671E0CE0101960E941604CB
:1011A0009E012D5E3F4FAE01435F5F4FBE01695F01
:1011B0007F4FCE0101960E94F704CE0101960E9456
:1011C0000E04CE0107960E940E04CE010D960E94D9
:1011D0000E04CE0143960E940E0462E0C62ED12C6E
:1011E00080910001909101010297C9F561E080E0D2
:1011F0000E94A9040E94A00480E10E94EB005C010F
:1012000081E0A816B10469F464EF71E080E090E039
:101210000E949801B092D102A092D00281E0809306
:10122000DB028FE00E94EB00019751F41093010163
:101230000093000164EF71E080E090E00E9498016B
:101240008EE00E94EB00019751F4F0920101E092D0
:10125000000164EF71E080E090E00E9498018091CD
:10126000000190910101039741F562E080E00E9446
:10127000A9040E94A00480E10E94EB00019769F498
:1012800064EF71E080E090E00E949801D092D1027A
:10129000C092D00281E08093DB028FE00E94EB00DD
:1012A000019709F0DDC3F0920101E092000164EFC3
:1012B00071E080E090E00E9498018091000190919F
:1012C0000101049741F563E080E00E94A9040E94B7
:1012D000A00480E10E94EB00019769F464EF71E0E3
:1012E00080E090E00E9498011093D1020093D00218
:1012F00081E08093DB028FE00E94EB00019709F010
:10130000BAC3D0920101C092000164EF71E080E0A5
:1013100090E00E9498018091DB02882309F460CF5D
:101320006FE571E0CE0143960E94160464E671E019
:10133000CE010D960E9416046BE671E0CE01079671
:101340000E94160462E871E0CE0101960E94160424
:101350009E012D5E3F4FAE01435F5F4FBE01695F4F
:101360007F4FCE0101960E94F704CE0101960E94A4
:101370000E04CE0107960E940E04CE010D960E9427
:101380000E04CE0143960E940E0482E090E09093FA
:1013900001018093000152E0C52ED12C8091DB0227
:1013A000882309F4B0C08091000190910101029757
:1013B000C9F561E080E00E94A9040E94A00480E1D8
:1013C0000E94EB005C0191E0A916B10469F464EF9E
:1013D00071E080E090E00E949801B092D302A09268
:1013E000D20281E08093DA028FE00E94EB00019745
:1013F00051F4109301010093000164EF71E080E06B
:1014000090E00E9498018EE00E94EB00019751F459
:10141000F0920101E092000164EF71E080E090E061
:101420000E94980180910001909101010397B1F50C
:1014300062E080E00E94A9040E94A00480E10E9472
:10144000EB00019769F464EF71E080E090E00E94A6
:101450009801D092D302C092D20281E08093DA0246
:101460008FE00E94EB00019751F4F0920101E092AD
:10147000000164EF71E080E090E00E9498018EE04E
:101480000E94EB00019751F4D0920101C09200013B
:1014900064EF71E080E090E00E949801809100018B
:1014A00090910101049741F563E080E00E94A90456
:1014B0000E94A00480E10E94EB00019769F464EFB0
:1014C00071E080E090E00E9498011093D3020093B5
:1014D000D20281E08093DA028FE00E94EB00019754
:1014E00009F0D4C2D0920101C092000164EF71E012
:1014F00080E090E00E9498018091DA02882309F44C
:101500004DCF1092DB026FE571E0CE0143960E9451
:10151000160464E671E0CE010D960E9416046BE697
:1015200071E0CE0107960E94160466E971E0CE01D3
:1015300001960E9416049E012D5E3F4FAE01435F4F
:101540005F4FBE01695F7F4FCE0101960E94F70495
:10155000CE0101960E940E04CE0107960E940E0451
:10156000CE010D960E940E04CE0143960E940E04F9
:1015700082E090E0909301018093000142E0C42E4C
:10158000D12C8091DA02882309F4B0C08091000147
:10159000909101010297C9F561E080E00E94A904E1
:1015A0000E94A00480E10E94EB005C0181E0A8168B
:1015B000B10469F464EF71E080E090E00E9498016A
:1015C000B092D502A092D40281E08093D9028FE03C
:1015D0000E94EB00019751F4109301010093000168
:1015E00064EF71E080E090E00E9498018EE00E943C
:1015F000EB00019751F4F0920101E092000164EFD9
:1016000071E080E090E00E9498018091000190914B
:1016100001010397B1F562E080E00E94A9040E94F5
:10162000A00480E10E94EB00019769F464EF71E08F
:1016300080E090E00E949801D092D502C092D4023E
:1016400081E08093D9028FE00E94EB00019751F472
:10165000F0920101E092000164EF71E080E090E01F
:101660000E9498018EE00E94EB00019751F4D09205
:101670000101C092000164EF71E080E090E00E94FF
:1016800098018091000190910101049741F563E078
:1016900080E00E94A9040E94A00480E10E94EB0067
:1016A000019769F464EF71E080E090E00E94980196
:1016B0001093D5020093D40281E08093D9028FE089
:1016C0000E94EB00019709F0ECC1D0920101C09299
:1016D000000164EF71E080E090E00E949801809149
:1016E000D902882309F44DCF1092DA0268EA71E03A
:1016F000CE0143960E94160467EB71E0CE010D9671
:101700000E94160466EC71E0CE0107960E94160452
:1017100065ED71E0CE0101960E9416049E012D5EDA
:101720003F4FAE01435F5F4FBE01695F7F4FCE0108
:1017300001960E94F704CE0101960E940E04CE018C
:1017400007960E940E04CE010D960E940E04CE0153
:1017500043960E940E0482E090E0909301018093F2
:10176000000132E0C32ED12C8091D902882309F4E4
:10177000ADC080910001909101010297B1F561E047
:1017800080E00E94A9040E94A00480E10E94EB0076
:10179000019769F464EF71E080E090E00E949801A5
:1017A0007092D7026092D60281E08093D8028FE0D7
:1017B0000E94EB00019751F4109301010093000186
:1017C00064EF71E080E090E00E9498018EE00E945A
:1017D000EB00019751F4F0920101E092000164EFF7
:1017E00071E080E090E00E9498018091000190916A
:1017F00001010397B1F562E080E00E94A9040E9414
:10180000A00480E10E94EB00019769F464EF71E0AD
:1018100080E090E00E9498015092D7024092D60258
:1018200081E08093D8028FE00E94EB00019751F491
:10183000F0920101E092000164EF71E080E090E03D
:101840000E9498018EE00E94EB00019751F4D09223
:101850000101C092000164EF71E080E090E00E941D
:1018600098018091000190910101049751F563E086
:1018700080E00E94A9040E94A00480E10E94EB0085
:10188000019779F464EF71E080E090E00E949801A4
:1018900086E490E09093D7028093D60281E0809313
:1018A000D8028FE00E94EB00019709F005C1D092A9
:1018B0000101C092000164EF71E080E090E00E94BD
:1018C00098018091D802882309F44ECF82E090E0FD
:1018D00090930101809300011092DB021092DA02D2
:1018E0001092D9021092D8020E94D9048091F70276
:1018F0008E7F8093F70288600E948F0461E082E00F
:101900000E94A90488EE91E00E94010468EB7BE04C
:1019100080E090E00E9498010E94D90461E082E09A
:101920000E94A90489EF91E00E94010468EE73E02F
:1019300080E090E00E949801C090D602D090D7023B
:10194000A090D402B090D5028090D2029090D302A1
:101950008091D0029091D1022EE1322E389EB001BA
:10196000399E700D11248EEE92E00E94CA0164E649
:1019700070E080E090E00E94980170E060E08EEE00
:1019800092E00E94CA0164E670E080E090E00E946C
:101990009801389CB001399C700D11248BEE92E0B7
:1019A0000E94CA0164E670E080E090E00E94980125
:1019B00070E060E08BEE92E00E94CA0164E670E0A5
:1019C00080E090E00E9498013A9CB0013B9C700D31
:1019D000112488EE92E00E94CA0164E670E080E083
:1019E00090E00E94980170E060E088EE92E00E9432
:1019F000CA0164E670E080E090E00E94980161E036
:101A00008CE00E94140160ED77E080E090E00E949D
:101A1000980160E08CE00E94140185E480937C00D2
:101A200080917A00806480937A0080917A0086FDAC
:101A3000FCCF80917800A0907900BA2CA82EB092AB
:101A4000CF02A092CE02CA14DB040CF440C061E0C5
:101A500083E00E94140161E08DE00E941401F3CF45
:101A60008EE00E94EB00019709F055CCD092010165
:101A7000C09200011CCC8EE00E94EB00019709F09F
:101A80004ACC10930101009300013FCC8EE00E94EC
:101A9000EB00019709F030CD109301010093000194
:101AA00025CD8EE00E94EB00019709F018CE10932F
:101AB0000101009300010DCE8EE00E94EB00019722
:101AC00009F0FFCE1093010100930001F4CE60E015
:101AD0008DE00E94140160E083E00E94140161E047
:101AE00086E00E94140160ED77E080E090E00E94C3
:101AF000980160E086E00E9414010E94E10480E009
:101B000090E0892B09F42ECB0E94000028CB052EF3
:101B100097FB1EF400940E949E0D57FD07D00E9473
:101B2000F00D07FC03D04EF40C949E0D509540959B
:101B3000309521953F4F4F4F5F4F08959095809579
:101B4000709561957F4F8F4F9F4F08950E94120EA1
:101B5000A59F900DB49F900DA49F800D911D112401
:101B60000895B7FF0C94A60D0E94A60D821B930B3F
:101B700008952F923F924F925F926F927F928F9231
:101B80009F92AF92BF92CF92DF92EF92FF920F930C
:101B90001F93CF93DF93CDB7DEB7CA1BDB0B0FB616
:101BA000F894DEBF0FBECDBF09942A8839884888D3
:101BB0005F846E847D848C849B84AA84B984C88469
:101BC000DF80EE80FD800C811B81AA81B981CE0F60
:101BD000D11D0FB6F894DEBF0FBECDBFED01089545
:101BE000A1E21A2EAA1BBB1BFD010DC0AA1FBB1F21
:101BF000EE1FFF1FA217B307E407F50720F0A21B93
:101C0000B30BE40BF50B661F771F881F991F1A94FF
:101C100069F760957095809590959B01AC01BD0129
:101C2000CF010895A29FB001B39FC001A39F700D83
:101C3000811D1124911DB29F700D811D1124911DD4
:101C40000895EE0FFF1F0590F491E02D09940F9376
:101C50001F93CF93DF938230910510F482E090E0E0
:101C6000E091FF02F091000330E020E0B0E0A0E05E
:101C7000309799F42115310509F44AC0281B390B16
:101C800024303105D8F58A819B816115710589F170
:101C9000FB0193838283FE0111C040815181028147
:101CA000138148175907E0F04817590799F410971E
:101CB00061F012960C93129713961C933296CF01F3
:101CC000DF91CF911F910F9108950093FF02109320
:101CD0000003F4CF2115310551F04217530738F0B6
:101CE000A901DB019A01BD01DF01F801C1CFEF01BC
:101CF000F9CF909300038093FF02CDCFFE01E20F56
:101D0000F31F819391932250310939832883D7CFD0
:101D10002091FD023091FE02232B41F42091040119
:101D2000309105013093FE022093FD0220910201C3
:101D3000309103012115310541F42DB73EB7409193
:101D4000060150910701241B350BE091FD02F09133
:101D5000FE02E217F307A0F42E1B3F0B28173907EA
:101D600078F0AC014E5F5F4F2417350748F04E0FF7
:101D70005F1F5093FE024093FD02819391939FCF8A
:101D8000F0E0E0E09CCFCF93DF930097E9F0FC0117
:101D9000329713821282A091FF02B0910003ED01ED
:101DA00030E020E01097A1F420813181820F931F51
:101DB0002091FD023091FE022817390709F061C019
:101DC000F093FE02E093FD02DF91CF910895EA01C6
:101DD000CE17DF07E8F54A815B819E014115510569
:101DE000B1F7E901FB83EA8349915991C40FD51FEB
:101DF000EC17FD0761F4808191810296840F951F95
:101E0000E90199838883828193819B838A83F0E0AF
:101E1000E0E012968D919C9113970097B9F52D9162
:101E20003C911197CD010296820F931F2091FD02E4
:101E30003091FE022817390739F6309751F5109284
:101E400000031092FF02B093FE02A093FD02BCCFEC
:101E5000D383C28340815181840F951FC817D9074E
:101E600061F44E5F5F4F88819981480F591F5183FC
:101E700040838A819B81938382832115310509F0F8
:101E8000B0CFF0930003E093FF029ECFFD01DC0191
:101E9000C0CF13821282D7CFB0E0A0E0E2E5FFE02E
:101EA0000C94BB0D8C01009751F4CB010E94270EBE
:101EB0008C01C801CDB7DEB7E0E10C94D70DFC0171
:101EC000E60FF71F9C0122503109E217F30708F4CF
:101ED0009DC0D901CD91DC911197C617D70798F015
:101EE000C530D10530F3CE0104978617970708F364
:101EF000C61BD70B2297C193D1936D937C93CF01CF
:101F00000E94C30ED6CF5B01AC1ABD0A4C018C0EE9
:101F10009D1EA091FF02B0910003512C412CF12C89
:101F2000E12C109731F58091FD029091FE02881509
:101F3000990509F05CC04616570608F058C0809114
:101F4000020190910301009741F48DB79EB7409133
:101F5000060150910701841B950BE817F90708F05B
:101F600055C0F093FE02E093FD02F9017183608396
:101F7000A0CF8D919C91119712966C901297139609
:101F80007C901397A815B90559F56C0142E0C40E71
:101F9000D11CCA14DB0420F1AC014A195B09DA0137
:101FA0001296159780F06282738251834083D90123
:101FB0006D937C93E114F10471F0D7011396FC93B7
:101FC000EE93129776CF22968C0F9D1FF901918385
:101FD0008083F301EFCFF0930003E093FF0269CF1A
:101FE0004816590608F42C017D01D3019ACFCB0184
:101FF0000E94270E7C01009749F0AE01B8010E94B3
:102000000910C8010E94C30E870153CF10E000E001
:1020100050CFFB01DC0102C001900D9241505040B5
:10202000D8F70895FB01DC0101900D920020E1F743
:102030000895F894FFCF0200000001038000000023
:1020400040001400540000000000E802BB02FE0340
:10205000AD02B402B102AE020000000078048C00B0
:10206000FE034602534D41525420434F46464545D8
:10207000204D414348494E450050726573732053CB
:10208000656C65637400746F206D616B6520636FB0
:10209000666665650048494748004D454449554DC9
:1020A000004C4F570053656C65637420537567612E
:1020B00072204C6576656C0053656C6563742050C6
:1020C0006F77646572204C6576656C0053656C654E
:1020D0006374204D696C6B204C6576656C003730FD
:1020E000206465672063656C636975730036302012
:1020F0006465672063656C636975730035302064BF
:1021000065672063656C636975730053656C65630F
:10211000742054656D7065726174757265004D61EF
:102120006B696E6720436F666665652E2E2E0043D1
:102130006F666665652069732052454144592100E8
:107E0000112484B714BE81FFF0D085E080938100F7
:107E100082E08093C00088E18093C10086E0809377
:107E2000C20080E18093C4008EE0C9D0259A86E02C
:107E300020E33CEF91E0309385002093840096BBD3
:107E4000B09BFECF1D9AA8958150A9F7CC24DD24C4
:107E500088248394B5E0AB2EA1E19A2EF3E0BF2EE7
:107E6000A2D0813461F49FD0082FAFD0023811F036
:107E7000013811F484E001C083E08DD089C08234E0
:107E800011F484E103C0853419F485E0A6D080C0E4
:107E9000853579F488D0E82EFF2485D0082F10E0AE
:107EA000102F00270E291F29000F111F8ED06801E7
:107EB0006FC0863521F484E090D080E0DECF843638
:107EC00009F040C070D06FD0082F6DD080E0C81688
:107ED00080E7D80618F4F601B7BEE895C0E0D1E017
:107EE00062D089930C17E1F7F0E0CF16F0E7DF06D8
:107EF00018F0F601B7BEE89568D007B600FCFDCFD4
:107F0000A601A0E0B1E02C9130E011968C91119780
:107F100090E0982F8827822B932B1296FA010C0160
:107F200087BEE89511244E5F5F4FF1E0A038BF0790
:107F300051F7F601A7BEE89507B600FCFDCF97BE46
:107F4000E89526C08437B1F42ED02DD0F82E2BD052
:107F50003CD0F601EF2C8F010F5F1F4F84911BD097
:107F6000EA94F801C1F70894C11CD11CFA94CF0C13
:107F7000D11C0EC0853739F428D08EE10CD085E9AC
:107F80000AD08FE07ACF813511F488E018D01DD067
:107F900080E101D065CF982F8091C00085FFFCCF94
:107FA0009093C60008958091C00087FFFCCF809118
:107FB000C00084FD01C0A8958091C6000895E0E648
:107FC000F0E098E1908380830895EDDF803219F02E
:107FD00088E0F5DFFFCF84E1DECF1F93182FE3DFCA
:107FE0001150E9F7F2DF1F91089580E0E8DFEE27F6
:047FF000FF270994CA
:027FFE00040479
:00000001FF
