:100000000C9462000C948A000C948A000C948A0070
:100010000C948A000C948A000C948A000C948A0038
:100020000C948A000C948A000C948A000C94630748
:100030000C948A000C948A000C948A000C948A0018
:100040000C9419070C948A000C94E7060C94C106D2
:100050000C948A000C948A000C948A000C948A00F8
:100060000C941F080C948A00000000002400270054
:100070002A0000000000250028002B0000000000DE
:1000800023002600290004040404040404040202DA
:100090000202020203030303030301020408102007
:1000A0004080010204081020010204081020000012
:1000B0000008000201000003040700000000000027
:1000C0000000590911241FBECFEFD8E0DEBFCDBF1D
:1000D00012E0A0E0B1E0E4EBF6E202C005900D9280
:1000E000AC31B107D9F723E0ACE1B2E001C01D9219
:1000F000A63DB207E1F710E0C2E6D0E004C02197C8
:10010000FE010E946011C136D107C9F70E94AC09F7
:100110000C9458130C94000008950895AF92BF9268
:10012000CF92DF92EF92FF920F931F93CF93DF93C3
:100130006C017B018B01040F151FEB015E01AE18F2
:10014000BF08C017D10759F06991D601ED91FC9114
:100150000190F081E02DC6010995892B79F7C50141
:10016000DF91CF911F910F91FF90EF90DF90CF9093
:10017000BF90AF900895FC014481558160817181E9
:1001800086EC93E00C948E00FC01538D448D252F5A
:1001900030E0842F90E0821B930B541710F0CF9621
:1001A000089501970895FC01918D828D981761F053
:1001B000A28DAE0FBF2FB11D5D968C91928D9F5F6A
:1001C0009F73928F90E008958FEF9FEF0895FC0149
:1001D000918D828D981731F0828DE80FF11D858DFC
:1001E00090E008958FEF9FEF0895FC01918D228D8F
:1001F000892F90E0805C9F4F821B91098F73992714
:10020000089584E193E00E94F50021E0892B09F430
:1002100020E0822F089580E090E0892B29F00E9451
:10022000010181110C9400000895FC01A48DA80F18
:10023000B92FB11DA35ABF4F2C91848D90E0019628
:100240008F739927848FA689B7892C93A089B18948
:100250008C91837080648C93938D848D981306C0E9
:100260000288F389E02D80818F7D80830895EF924D
:10027000FF920F931F93CF93DF93EC0181E0888F60
:100280009B8D8C8D98131AC0E889F989808185FF30
:1002900015C09FB7F894EE89FF896083E889F989D2
:1002A00080818370806480839FBF81E090E0DF91D4
:1002B000CF911F910F91FF90EF900895F62E0B8D27
:1002C00010E00F5F1F4F0F731127E02E8C8D8E11E2
:1002D0000CC00FB607FCFACFE889F989808185FF49
:1002E000F5CFCE010E941501F1CFEB8DEC0FFD2F64
:1002F000F11DE35AFF4FF0829FB7F8940B8FEA8904
:10030000FB8980818062CFCFCF93DF93EC01888D12
:100310008823B9F0AA89BB89E889F9898C9185FD80
:1003200003C0808186FD0DC00FB607FCF7CF8C910E
:1003300085FFF2CF808185FFEDCFCE010E941501B0
:10034000E9CFDF91CF910895833081F028F4813097
:1003500099F08230A9F008958730A9F08830C9F06B
:100360008430B1F4809180008F7D03C08091800043
:100370008F7780938000089584B58F7784BD08952A
:1003800084B58F7DFBCF8091B0008F778093B000D4
:1003900008958091B0008F7DF9CFCF93DF93282F00
:1003A00030E0F901E255FF4F8491F901E656FF4F25
:1003B000D491F901EA57FF4FC491CC23A1F08111E8
:1003C0000E94A401EC2FF0E0EE0FFF1FE458FF4F56
:1003D000A591B491EC91ED2381E090E009F480E0E7
:1003E000DF91CF91089580E090E0FACF1F93CF93F3
:1003F000DF93282F30E0F901E255FF4F8491F90196
:10040000E656FF4FD491F901EA57FF4FC491CC2330
:10041000A9F0162F81110E94A401EC2FF0E0EE0F3D
:10042000FF1FEE58FF4FA591B4918FB7F894EC9150
:10043000111108C0D095DE23DC938FBFDF91CF91DF
:100440001F910895DE2BF8CFCF93DF9390E0FC014E
:10045000E656FF4F24918A579F4FFC0184918823D1
:10046000D1F090E0880F991FFC01E859FF4FA5914A
:10047000B491FC01EE58FF4FC591D49161110EC0AB
:100480009FB7F8948C91E22FE0958E238C9328816E
:10049000E223E8839FBFDF91CF9108958FB7F8944F
:1004A000EC91E22BEC938FBFF6CF3FB7F89480919D
:1004B000F9029091FA02A091FB02B091FC0226B5DC
:1004C000A89B05C02F3F19F00196A11DB11D3FBF8C
:1004D000BA2FA92F982F8827BC01CD01620F711D5B
:1004E000811D911D42E0660F771F881F991F4A9555
:1004F000D1F708958F929F92AF92BF92CF92DF92E1
:10050000EF92FF924B015C010E9455026B017C014E
:100510000E9455026C197D098E099F09683E73403F
:1005200081059105A8F321E0821A9108A108B1087C
:1005300088EEC80E83E0D81EE11CF11C81149104E2
:10054000A104B10429F7FF90EF90DF90CF90BF9006
:10055000AF909F908F900895CF92DF92EF92FF928D
:10056000CF93DF93EC01603282E07807CCF5653BF6
:10057000710514F064EB70E0898128E830E0281BF5
:10058000310987FD3395220F331F220F331F690175
:10059000330FEE08FF088A8128E532E0281B310975
:1005A00087FD3395220F331F220F331F032E000CBC
:1005B000440B550B2C193D094E095F09DB0177FFF0
:1005C00002C0B0E0A0E00E94E41024EB30E040E084
:1005D00050E00E94BA10C20ED31EE41EF51EB601F2
:1005E000E881EC3070F5298188E890E0821B910960
:1005F00027FD9395880F991F880F991F6817790712
:100600007CF02A8188E592E0821B910927FD939571
:10061000880F991F880F991F681779070CF4CB0171
:100620000297880F991F4FB7F8942E2F30E0F901E9
:10063000EE0FFF1FE20FF31FE053FD4F9283818304
:100640004FBFDF91CF91FF90EF90DF90CF90089553
:100650001F93CF93DF93EC01162F88818C3008F025
:100660004EC061E0812F0E9424028881282F30E053
:10067000F901EE0FFF1FE20FF31FE053FD4F1F7351
:100680006081607C612B608319821A822CE0622F6A
:100690000E945411829FB001112430E020E0AB0190
:1006A000420F531FFA01EE0FFF1FE40FF51FE05337
:1006B000FD4F908196FD16C02F5F3F4F2C303105C6
:1006C00071F781110FC01092800082E08093810049
:1006D0001092850010928400B19A80916F00826020
:1006E00080936F00E8818E2F90E0FC01EE0FFF1FDA
:1006F000E80FF91FE053FD4F80818064808388817B
:10070000DF91CF911F910895089520915D02260FEA
:100710003327331F21323105ECF42091A602FC016E
:1007200090E080E0243069F082E00895A0915D02BD
:100730002191AC01435C5D4FA40FB52FB11D2C93EB
:100740000196861798F380915D02680F60935D02B1
:1007500080E0089581E008951092A60281E08093E0
:10076000A5021092800261E082E10E94F60161E040
:1007700083E10E94F601E9EBF0E080818E7F8083C7
:1007800080818D7F808388E48093B80085E48093A6
:10079000BC000895CF93DF9391E090933C028823AF
:1007A000B9F0C091B800D091BA008091BC008A7BAA
:1007B0008093BC0060E082E10E94F60160E083E18A
:1007C0000E94F6010E94AC03D093BA00C093B80017
:1007D000DF91CF9108950895E09104038091030380
:1007E000E81730F4F0E0E45EFD4F808190E008957A
:1007F0008FEF9FEF089590910403809103032FEFF3
:100800003FEF981748F4E92FF0E0E45EFD4F2081B8
:1008100030E09F5F90930403C90108958091030322
:1008200090910403891B990B0895CF92DF92EF9268
:10083000FF920F931F93CF93DF937C01CB018A012B
:100840002091AC02222389F0EB016B01C40ED51E6E
:10085000CC15DD0569F06991D701ED91FC9101900E
:10086000F081E02DC7010995F3CF642F0E94850325
:10087000C801DF91CF911F910F91FF90EF90DF9012
:10088000CF900895CF93DF931F92CDB7DEB76983E2
:100890002091AC022223F9F020910103203258F07C
:1008A00021E030E0FC013383228390E080E00F9070
:1008B000DF91CF91089580910203E82FF0E0E35596
:1008C000FD4F998190838F5F809302038093010392
:1008D00081E090E0ECCF61E0CE0101960E948503BB
:1008E000F7CFCF92DF92EF92FF920F931F93CF93A8
:1008F000DF93FC01C48121E02093AC02C093CD02C0
:1009000010920203109201038385682B81EB93E020
:100910000E944204D0910103D13208F092C00E949B
:1009200055026B017C018091A602811165C082E0B5
:100930008093A60281E08093A5028FEF8093A402AA
:100940001092A302D093A202ADEAB2E0E2E8F2E094
:1009500080E0D81385C01092810280918102CC0F73
:10096000C82BC093810280918002813009F07CC045
:10097000109280020E9455026B017C0180918102DD
:100980008093BB008091A8029091A902A091AA0235
:10099000B091AB02892B8A2B8B2B99F00E945502C8
:1009A0000091A8021091A9022091AA023091AB02F5
:1009B0006C197D098E099F09061717072807390743
:1009C000E0F18091BC0083FDD9CF85EC8093BC0021
:1009D0000E9455026B017C018091A602823009F4CD
:1009E00045C08091A4028F3F61F18091A4028032C2
:1009F00041F18091A40225C08091A8029091A902A2
:100A0000A091AA02B091AB02892B8A2B8B2B09F4FF
:100A10008ACF0E9455020091A8021091A90220914C
:100A2000AA023091AB026C197D098E099F09061745
:100A300017072807390708F076CF8091A7020E9490
:100A4000CA0310920203109201031092AC02DF91CC
:100A5000CF911F910F91FF90EF90DF90CF9008956D
:100A60009D9191938F5F75CF85EEB0CF8091A80255
:100A70009091A902A091AA02B091AB02892B8A2B76
:100A80008B2B09F4A9CF0E9455020091A802109166
:100A9000A9022091AA023091AB026C197D098E093E
:100AA0009F09061717072807390708F095CFC5CF04
:100AB00090E080E00895FC0101900020E9F7319773
:100AC000AF01481B590BBC0186EC93E00C948E00DF
:100AD000FC0180819181009711F00C94021208951D
:100AE000EF92FF920F931F93CF93DF93EC017B0163
:100AF000198218821B821A821D821C82FB010190BE
:100B00000020E9F731978F01061B170BB8016F5FC3
:100B10007F4F90E080E00E948B120097B9F099839C
:100B200088831B830A832C813D81232B11F4FC01D4
:100B300010821D830C83B70188819981DF91CF9149
:100B40001F910F91FF90EF900C9451138881998120
:100B5000009711F00E940212198218821D821C82D5
:100B60001B821A82DF91CF911F910F91FF90EF901E
:100B700008950F931F93CF938C01C62F0E94710489
:100B80006C2F6460C8010E9471046C2F6B7FC801D8
:100B90000E94710483EC90E00197F1F7CF911F91CF
:100BA0000F910895CF93C82F682F607F86EC93E054
:100BB0000E94B90580E1C89FB001112486EC93E042
:100BC000CF910C94B905E6ECF3E08681982F916003
:100BD000968389600C94D205CF93DF93CDB7DEB7AF
:100BE00028970FB6F894DEBF0FBECDBF98E0E8E0BF
:100BF000F1E0DE01119601900D929A95E1F7909146
:100C0000CE03961710F46FEF690F70E0660F771F31
:100C100021E030E02C0F3D1F620F731FFB0190811C
:100C2000890F806828960FB6F894DEBF0FBECDBF3F
:100C3000DF91CF910C94D20581E00E94D2058BE325
:100C40009FE10197F1F708950E941C0680E491E06E
:100C50000E945B0562E084E00E94EC0585E591E07E
:100C60000E945B0563E083E00E94EC0582E691E070
:100C70000C945B05CF92DF92EF92FF920F931F933C
:100C8000CF93DF936C017B018A01E9010E941C066E
:100C900060E081E00E94EC05C6010E94BB0061E0BB
:100CA00081E00E94EC05C7010E94BB0062E081E088
:100CB0000E94EC05C8010E94BB0063E081E00E9435
:100CC000EC05CE010E94BB0064EF71E080E090E093
:100CD000DF91CF911F910F91FF90EF90DF90CF9018
:100CE0000C947A020F931F93CF938C01C62F607FD1
:100CF00061600E94B90580E1C89FB0011124616064
:100D0000C8010E94B90581E090E0CF911F910F9139
:100D1000089585ED8093BC008091A8029091A9026E
:100D2000A091AA02B091AB020796A11DB11D23E0CC
:100D3000B695A795979587952A95D1F72091BC00F0
:100D400024FD03C01092A60208954091A80250917C
:100D5000A9026091AA027091AB02452B462B472B4A
:100D600069F30097A105B10541F025E32A95F1F754
:100D700000000197A109B109E1CF8091A7020C946D
:100D8000CA031F920F920FB60F9211242F933F9315
:100D90004F935F936F937F938F939F93AF93BF9383
:100DA000EF93FF9384E193E00E941501FF91EF918F
:100DB000BF91AF919F918F917F916F915F914F9173
:100DC0003F912F910F900FBE0F901F9018951F927B
:100DD0000F920FB60F9211242F938F939F93EF933F
:100DE000FF93E0912403F09125038081E0912A0391
:100DF000F0912B0382FD1BC0908180912D038F5FAA
:100E00008F7320912E03821741F0E0912D03F0E0C3
:100E1000EC5EFC4F958F80932D03FF91EF919F9196
:100E20008F912F910F900FBE0F901F90189580817A
:100E3000F4CF1F920F920FB60F9211242F933F936E
:100E40008F939F93AF93BF938091F5029091F60299
:100E5000A091F702B091F8023091F40223E0230F41
:100E60002D3758F50196A11DB11D2093F4028093F2
:100E7000F5029093F602A093F702B093F8028091E6
:100E8000F9029091FA02A091FB02B091FC02019646
:100E9000A11DB11D8093F9029093FA02A093FB0269
:100EA000B093FC02BF91AF919F918F913F912F9191
:100EB0000F900FBE0F901F90189526E8230F0296F3
:100EC000A11DB11DD2CF1F920F920FB60F92112408
:100ED0002F933F934F935F936F937F938F939F9342
:100EE000AF93BF93CF93DF93EF93FF938091CE02A5
:100EF000C091CF02D0E087FF24C0109285001092ED
:100F000084008091CE028F5F8093CE028091CE02CA
:100F1000082E000C990B8C179D0724F48091CE02AB
:100F20008C30C4F1809184009091850004968034C7
:100F30009C4908F47AC080918400909185000496C1
:100F400076C08091CE02082E000C990B8C179D075D
:100F5000C4F6E091CE028E2FEE0F990BFC01EE0F3E
:100F6000FF1FE80FF91FE053FD4F808186FFC9CFB7
:100F7000E091CE028E2FEE0F990BFC01EE0FFF1FBA
:100F8000E80FF91FE053FD4F808160E08F730E94EE
:100F9000F601B7CF2091840030918500E091CE0218
:100FA0008E2FEE0F990BFC01EE0FFF1FE80FF91FBC
:100FB000E053FD4F81819281820F931F90938900AE
:100FC00080938800E091CE028E2FEE0F990BFC01EA
:100FD000EE0FFF1FE80FF91FE053FD4F808186FFE2
:100FE00011C0E091CE028E2FEE0F990BFC01EE0F97
:100FF000FF1FE80FF91FE053FD4F808161E08F7301
:101000000E94F601FF91EF91DF91CF91BF91AF91D7
:101010009F918F917F916F915F914F913F912F9110
:101020000F900FBE0F901F90189580E49CE990934D
:101030008900809388008FEF8093CE02E3CF1F92C8
:101040000F920FB60F9211242F933F934F935F93FC
:101050006F937F938F939F93AF93BF93EF93FF9380
:101060008091B900887F803609F44AC0F0F5883253
:1010700009F4A7C018F5803109F49BC0B8F488239F
:1010800009F4F9C0883009F494C0FF91EF91BF9141
:10109000AF919F918F917F916F915F914F913F9110
:1010A0002F910F900FBE0F901F901895883109F463
:1010B00088C0803251F78093A40214C0803409F4B0
:1010C0009DC040F48033B9F38833F9F68093A402CD
:1010D00085ECB0C0803509F485C0883509F496C028
:1010E000883499F60E948906D0CF883909F48CC0DB
:1010F00038F5883729F050F4883611F0803729F612
:1011000083E08093A60210927F0257C0883809F4CA
:101110007BC0803919F0803809F0B7CF80917F0209
:10112000803208F071C0E0917F0281E08E0F8093E1
:101130007F028091BB00F0E0E15AFD4F80833DC00B
:10114000803B39F0E0F4803A09F479C0883A09F03C
:101150009CCF84E08093A60210925E0210925D0202
:10116000E091FF02F0910003099580915D028111E9
:101170000FC081E080935D0210923D0209C0803C67
:1011800009F4A6CF883C09F4A3CF883B09F07DCFB2
:10119000E0915E0281E08E0F80935E02F0E0E35CFE
:1011A000FD4F80818093BB0090915E0280915D0233
:1011B00029C0809181028093BB0085EC8093BC00A4
:1011C00064CF9091A3028091A202981758F5E09104
:1011D000A30281E08E0F8093A302F0E0EE57FD4F53
:1011E0008081E9CFE091A30281E08E0F8093A3027A
:1011F0008091BB00F0E0EE57FD4F80839091A302F9
:101200008091A2029817C8F285E8D8CFE091A30296
:1012100081E08E0F8093A3028091BB00F0E0EE5737
:10122000FD4F80838091A50281115CCF81E0809386
:10123000800284EA8093BC001092A60226CF85EC3F
:101240008093BC001092A60280917F02803230F41D
:10125000E0917F02F0E0E15AFD4F108260917F0241
:1012600070E0E091FD02F091FE028FE592E00995B9
:1012700010927F020ACF1092A40234CFFC01909109
:10128000CF029C3098F481E0890F8093CF02908345
:10129000892F90E0FC01EE0FFF1FE80FF91FE053CC
:1012A000FD4F88EB9BE09283818308958FEF8083CD
:1012B0000895E4E1F3E01382128288EE93E0A0E067
:1012C000B0E084839583A683B78324E131E0318342
:1012D000208325EC30E03587248724EC30E0378705
:1012E000268720EC30E0318B208B21EC30E0338BF3
:1012F000228B22EC30E0358B248B26EC30E0378BD0
:10130000268B118E128E138E148EE1EBF3E0138276
:10131000128284839583A683B78386E291E09183CA
:101320008083E6ECF3E01382128288E391E09183FC
:10133000808387E2848384E1818784E082871386C7
:1013400083EC93E00E943E0980EC93E00E943E090A
:101350008DEB93E00C943E09CF93DF93CDB7DEB7CE
:1013600068970FB6F894DEBF0FBECDBF789484B5F2
:10137000826084BD84B5816084BD85B5826085BD91
:1013800085B5816085BD80916E00816080936E001F
:101390001092810080918100826080938100809111
:1013A00081008160809381008091800081608093C2
:1013B00080008091B10084608093B1008091B00082
:1013C00081608093B00080917A00846080937A007D
:1013D00080917A00826080937A0080917A008160A7
:1013E00080937A0080917A00806880937A001092CE
:1013F000C10061E070E080EC93E00E94280362E0AD
:1014000070E083EC93E00E94280363E070E08DEBD2
:1014100093E00E94280370E060E080EC93E00E947B
:10142000AC0270E060E083EC93E00E94AC0270E0FC
:1014300060E08DEB93E00E94AC0260E08EE00E94E1
:10144000240260E08FE00E94240260E080E10E94BC
:10145000240260E081E10E94240260E085E00E94B5
:10146000240261E083E00E94240261E086E00E94A1
:10147000240261E08CE00E94240261E08DE00E9481
:10148000240210920403109203031092020310929C
:1014900001030E94AC038CE890E0909300038093DA
:1014A000FF028DE890E09093FE028093FD0210927F
:1014B000CB038091D003823018F098E09093CB0357
:1014C0008093CE0362E370E080E090E00E947A02B5
:1014D0006091D10386EC93E00E94710468EE73E0A2
:1014E00080E090E00E947A0260E386EC93E00E9444
:1014F000B9050BE416E4C8010197F1F760E386EC47
:1015000093E00E94B905C8010197F1F760E386EC0A
:1015100093E00E94B90583E592E00197F1F760E25C
:1015200086EC93E00E94B9058091CB0380620E9413
:10153000D20584E08093CC038CE00E94D2050E9407
:101540001C0612E01093CD0386E00E94D20582E0D3
:101550000E94D2058BE39FE10197F1F70E941C06E0
:1015600088E08093D10360E086EC93E00E947104F0
:101570000E942406E0912403F09125031083E0915A
:101580002003F09121031082E0912203F0912303C4
:1015900083E3808310922C03E0912803F0912903C8
:1015A00086E08083E0912603F091270380818061AB
:1015B0008083E0912603F0912703808188608083F7
:1015C000E0912603F0912703808180688083E09179
:1015D0002603F091270380818F7D808303E010E054
:1015E00066E4462E512C74E0E72EF12CECE36E2ECF
:1015F000712C84E193E00E94F500181619060CF492
:10160000ACC580E10E94CD01019709F0A6C561E754
:1016100071E0CE0143960E94700566E771E0CE014D
:101620000D960E9470056DE771E0CE0107960E944D
:10163000700561E871E0CE0101960E9470059E017F
:101640002D5E3F4FAE01435F5F4FBE01695F7F4F2D
:10165000CE0101960E943A06CE0101960E946805CD
:10166000CE0107960E946805CE010D960E9468057E
:10167000CE0143960E94680552E0C52ED12C809180
:10168000000190910101029709F047C061E080E0FC
:101690000E94EC050E94E30580E10E94CD015C01FF
:1016A00081E0A816B10469F464EF71E080E090E095
:1016B0000E947A02B0920803A092070381E080930F
:1016C00012038FE00E94CD01019751F410930101A4
:1016D0000093000164EF71E080E090E00E947A02E4
:1016E0008EE00E94CD01019751F4F0920101E09249
:1016F000000164EF71E080E090E00E947A0281E1F5
:101700000E94CD01019749F481E08093130364EFB7
:1017100071E080E090E00E947A0280910001909157
:101720000101039709F044C062E080E00E94EC05EB
:101730000E94E30580E10E94CD01019769F464EF06
:1017400071E080E090E00E947A02D0920803C0929B
:10175000070381E0809312038FE00E94CD0101977F
:1017600051F4F0920101E092000164EF71E080E039
:1017700090E00E947A028EE00E94CD01019751F420
:10178000D0920101C092000164EF71E080E090E02E
:101790000E947A0281E10E94CD01019749F481E023
:1017A0008093130364EF71E080E090E00E947A027E
:1017B0008091000190910101049709F044C063E019
:1017C00080E00E94EC050E94E30580E10E94CD01CB
:1017D000019769F464EF71E080E090E00E947A0282
:1017E000109308030093070381E0809312038FE0B6
:1017F0000E94CD01019751F4D0920101C0920001E5
:1018000064EF71E080E090E00E947A028EE00E9436
:10181000CD01019751F4109301010093000164EF91
:1018200071E080E090E00E947A0281E10E94CD01A7
:10183000019749F481E08093130364EF71E080E045
:1018400090E00E947A0280911303811174C4809108
:101850001203882309F413CF61E771E0CE014396A8
:101860000E94700566E771E0CE010D960E9470053A
:101870006DE771E0CE0107960E94700568E072E0A6
:10188000CE0101960E9470059E012D5E3F4FAE0174
:10189000435F5F4FBE01695F7F4FCE0101960E949B
:1018A0003A06CE0101960E946805CE0107960E9475
:1018B0006805CE010D960E946805CE0143960E94F0
:1018C000680582E090E0909301018093000182E03E
:1018D000C82ED12C80911203882309F4EFC0809187
:1018E000000190910101029709F047C061E080E09A
:1018F0000E94EC050E94E30580E10E94CD015C019D
:1019000091E0A916B10469F464EF71E080E090E021
:101910000E947A02B0920A03A092090381E08093A8
:1019200011038FE00E94CD01019751F41093010142
:101930000093000164EF71E080E090E00E947A0281
:101940008EE00E94CD01019751F4F0920101E092E6
:10195000000164EF71E080E090E00E947A0281E192
:101960000E94CD01019749F481E08093130364EF55
:1019700071E080E090E00E947A02809100019091F5
:101980000101039709F044C062E080E00E94EC0589
:101990000E94E30580E10E94CD01019769F464EFA4
:1019A00071E080E090E00E947A02D0920A03C09237
:1019B000090381E0809311038FE00E94CD0101971C
:1019C00051F4F0920101E092000164EF71E080E0D7
:1019D00090E00E947A028EE00E94CD01019751F4BE
:1019E000D0920101C092000164EF71E080E090E0CC
:1019F0000E947A0281E10E94CD01019749F481E0C1
:101A00008093130364EF71E080E090E00E947A021B
:101A10008091000190910101049709F044C063E0B6
:101A200080E00E94EC050E94E30580E10E94CD0168
:101A3000019769F464EF71E080E090E00E947A021F
:101A400010930A030093090381E0809311038FE050
:101A50000E94CD01019751F4D0920101C092000182
:101A600064EF71E080E090E00E947A028EE00E94D4
:101A7000CD01019751F4109301010093000164EF2F
:101A800071E080E090E00E947A0281E10E94CD0145
:101A9000019749F481E08093130364EF71E080E0E3
:101AA00090E00E947A0280911303811144C38091D7
:101AB0001103882309F40ECF1092120380911303AF
:101AC000811139C361E771E0CE0143960E94700530
:101AD00066E771E0CE010D960E9470056DE771E03A
:101AE000CE0107960E94700564E971E0CE0101966F
:101AF0000E9470059E012D5E3F4FAE01435F5F4F18
:101B0000BE01695F7F4FCE0101960E943A06CE0169
:101B100001960E946805CE0107960E946805CE01D5
:101B20000D960E946805CE0143960E94680582E0EA
:101B300090E0909301018093000142E0C42ED12CEB
:101B400080911103882309F4EFC0809100019091E6
:101B50000101029709F047C061E080E00E94EC05B6
:101B60000E94E30580E10E94CD015C0181E0A8169E
:101B7000B10469F464EF71E080E090E00E947A02C1
:101B8000B0920C03A0920B0381E0809310038FE0CE
:101B90000E94CD01019751F41093010100930001BF
:101BA00064EF71E080E090E00E947A028EE00E9493
:101BB000CD01019751F4F0920101E092000164EF30
:101BC00071E080E090E00E947A0281E10E94CD0104
:101BD000019749F481E08093130364EF71E080E0A2
:101BE00090E00E947A028091000190910101039798
:101BF00009F044C062E080E00E94EC050E94E30529
:101C000080E10E94CD01019769F464EF71E080E00A
:101C100090E00E947A02D0920C03C0920B0381E004
:101C2000809310038FE00E94CD01019751F4F09250
:101C30000101E092000164EF71E080E090E00E9419
:101C40007A028EE00E94CD01019751F4D0920101F9
:101C5000C092000164EF71E080E090E00E947A029F
:101C600081E10E94CD01019749F481E08093130343
:101C700064EF71E080E090E00E947A0280910001C0
:101C800090910101049709F044C063E080E00E9454
:101C9000EC050E94E30580E10E94CD01019769F403
:101CA00064EF71E080E090E00E947A0210930C03F0
:101CB00000930B0381E0809310038FE00E94CD011D
:101CC000019751F4D0920101C092000164EF71E0DC
:101CD00080E090E00E947A028EE00E94CD010197A0
:101CE00051F4109301010093000164EF71E080E072
:101CF00090E00E947A0281E10E94CD01019749F4AF
:101D000081E08093130364EF71E080E090E00E9433
:101D10007A028091130381110EC2809110038823EF
:101D200009F40ECF1092110380911303811103C2A5
:101D300066EA71E0CE0143960E94700565EB71E0A2
:101D4000CE010D960E94700564EC71E0CE010796FD
:101D50000E94700563ED71E0CE0101960E9470054E
:101D60009E012D5E3F4FAE01435F5F4FBE01695F35
:101D70007F4FCE0101960E943A06CE0101960E9445
:101D80006805CE0107960E946805CE010D960E9457
:101D90006805CE0143960E94680582E090E090932A
:101DA00001018093000132E0C32ED12C80911003F9
:101DB000882309F4EBC08091000190910101029702
:101DC00009F046C061E080E00E94EC050E94E30556
:101DD00080E10E94CD01019779F464EF71E080E029
:101DE00090E00E947A0282E390E090930E03809349
:101DF0000D0381E080930F038FE00E94CD010197D6
:101E000051F4109301010093000164EF71E080E050
:101E100090E00E947A028EE00E94CD01019751F479
:101E2000F0920101E092000164EF71E080E090E047
:101E30000E947A0281E10E94CD01019749F481E07C
:101E40008093130364EF71E080E090E00E947A02D7
:101E50008091000190910101039709F044C062E074
:101E600080E00E94EC050E94E30580E10E94CD0124
:101E7000019769F464EF71E080E090E00E947A02DB
:101E800070920E0360920D0381E080930F038FE048
:101E90000E94CD01019751F4F0920101E0920001FE
:101EA00064EF71E080E090E00E947A028EE00E9490
:101EB000CD01019751F4D0920101C092000164EF6D
:101EC00071E080E090E00E947A0281E10E94CD0101
:101ED000019749F481E08093130364EF71E080E09F
:101EE00090E00E947A028091000190910101049794
:101EF00009F041C063E080E00E94EC050E94E30528
:101F000080E10E94CD01019751F464EF71E080E01F
:101F100090E00E947A0250920E0340920D038FE0EF
:101F20000E94CD01019751F4D0920101C0920001AD
:101F300064EF71E080E090E00E947A028EE00E94FF
:101F4000CD01019751F4109301010093000164EF5A
:101F500071E080E090E00E947A0281E10E94CD0170
:101F6000019749F481E08093130364EF71E080E00E
:101F700090E00E947A02809113038111DCC080916D
:101F80000F03882309F412CF1092100380911303DA
:101F90008111D1C00E941C068091CC038E7F80935A
:101FA000CC0388600E94D20561E082E00E94EC05CB
:101FB00086EE91E00E945B0568EE73E080E090E0C1
:101FC0000E947A02C0900D03D0900E03A0900B03E4
:101FD000B0900C038090090390900A03809107034E
:101FE000909108032EE1322E389EB001399E700D7B
:101FF000112483EC93E00E94AC0268EE73E080E071
:1020000090E00E947A0270E060E083EC93E00E942E
:10201000AC0268EE73E080E090E00E947A02389CA7
:10202000B001399C700D112480EC93E00E94AC0249
:1020300068EE73E080E090E00E947A0270E060E079
:1020400080EC93E00E94AC0268EE73E080E090E0E8
:102050000E947A023A9CB0013B9C700D11248DEBDA
:1020600093E00E94AC0268EE73E080E090E00E9492
:102070007A0270E060E08DEB93E00E94AC0268EEC3
:1020800073E080E090E00E947A0261E08CE00E94C0
:10209000F60160ED77E080E090E00E947A0260E077
:1020A0008CE00E94F60185E480937C0080917A00A8
:1020B000806480937A0080917A0086FDFCCF8091C5
:1020C0007800A0907900BA2CA82EB0920603A092B6
:1020D0000503CA14DB044CF061E083E00E94F601C2
:1020E00061E08DE00E94F601F4CF60E08DE00E9497
:1020F000F60160E083E00E94F60161E086E00E9464
:10210000F60160ED77E080E090E00E947A0260E006
:1021100086E00E94F6010E941C0661E082E00E94B7
:10212000EC0587EF91E00E945B0568EE73E080E0CC
:1021300090E00E947A0282E090E090930101809307
:1021400000011092120310921103109210031092CA
:102150000F03109213030E94240680E090E0892B65
:1021600009F447CA0E940101882309F442CA0E9467
:1021700000003FCA052E97FB1EF400940E94D11068
:1021800057FD07D00E94231107FC03D04EF40C9496
:10219000D11050954095309521953F4F4F4F5F4F4F
:1021A000089590958095709561957F4F8F4F9F4FC3
:1021B00008950E944511A59F900DB49F900DA49F76
:1021C000800D911D11240895B7FF0C94D9100E9421
:1021D000D910821B930B08952F923F924F925F92DA
:1021E0006F927F928F929F92AF92BF92CF92DF9227
:1021F000EF92FF920F931F93CF93DF93CDB7DEB78C
:10220000CA1BDB0B0FB6F894DEBF0FBECDBF09941F
:102210002A88398848885F846E847D848C849B8476
:10222000AA84B984C884DF80EE80FD800C811B8184
:10223000AA81B981CE0FD11D0FB6F894DEBF0FBEB3
:10224000CDBFED010895A1E21A2EAA1BBB1BFD0113
:102250000DC0AA1FBB1FEE1FFF1FA217B307E40785
:10226000F50720F0A21BB30BE40BF50B661F771FDD
:10227000881F991F1A9469F76095709580959095BD
:102280009B01AC01BD01CF010895A29FB001B39F96
:10229000C001A39F700D811D1124911DB29F700D6F
:1022A000811D1124911D0895991B79E004C0991F87
:1022B000961708F0961B881F7A95C9F780950895A0
:1022C000EE0FFF1F0590F491E02D09940F931F93DB
:1022D000CF93DF938230910510F482E090E0E0919B
:1022E000D403F091D50330E020E0B0E0A0E03097D7
:1022F00099F42115310509F44AC0281B390B243003
:102300003105D8F58A819B816115710589F1FB0141
:1023100093838283FE0111C0408151810281138128
:1023200048175907E0F04817590799F4109761F0DA
:1023300012960C93129713961C933296CF01DF914D
:10234000CF911F910F9108950093D4031093D5035B
:10235000F4CF2115310551F04217530738F0A90188
:10236000DB019A01BD01DF01F801C1CFEF01F9CF17
:102370009093D5038093D403CDCFFE01E20FF31FDA
:10238000819391932250310939832883D7CF2091AB
:10239000D2033091D303232B41F4209104013091D7
:1023A00005013093D3032093D20320910201309191
:1023B00003012115310541F42DB73EB740910601C7
:1023C00050910701241B350BE091D203F091D30308
:1023D000E217F307A0F42E1B3F0B2817390778F0FC
:1023E000AC014E5F5F4F2417350748F04E0F5F1F5B
:1023F0005093D3034093D203819391939FCFF0E006
:10240000E0E09CCFCF93DF930097E9F0FC01329797
:1024100013821282A091D403B091D503ED0130E074
:1024200020E01097A1F420813181820F931F209129
:10243000D2033091D3032817390709F061C0F09314
:10244000D303E093D203DF91CF910895EA01CE1731
:10245000DF07E8F54A815B819E0141155105B1F71F
:10246000E901FB83EA8349915991C40FD51FEC1709
:10247000FD0761F4808191810296840F951FE90127
:1024800099838883828193819B838A83F0E0E0E053
:1024900012968D919C9113970097B9F52D913C91CF
:1024A0001197CD010296820F931F2091D203309194
:1024B000D3032817390739F6309751F51092D50311
:1024C0001092D403B093D303A093D203BCCFD38391
:1024D000C28340815181840F951FC817D90761F4C9
:1024E0004E5F5F4F88819981480F591F5183408308
:1024F0008A819B81938382832115310509F0B0CFB6
:10250000F093D503E093D4039ECFFD01DC01C0CF4F
:1025100013821282D7CFB0E0A0E0E1E9F2E10C949F
:10252000EE108C01009751F4CB010E9466118C01D2
:10253000C801CDB7DEB7E0E10C940A11FC01E60F4B
:10254000F71F9C0122503109E217F30708F49DC0E0
:10255000D901CD91DC911197C617D70798F0C530F6
:10256000D10530F3CE0104978617970708F3C61BF1
:10257000D70B2297C193D1936D937C93CF010E9487
:102580000212D6CF5B01AC1ABD0A4C018C0E9D1E07
:10259000A091D403B091D503512C412CF12CE12C06
:1025A000109731F58091D2039091D3038815990546
:1025B00009F05CC04616570608F058C08091020129
:1025C00090910301009741F48DB79EB740910601A9
:1025D00050910701841B950BE817F90708F055C0C7
:1025E000F093D303E093D203F90171836083A0CF0A
:1025F0008D919C91119712966C90129713967C90E6
:102600001397A815B90559F56C0142E0C40ED11C09
:10261000CA14DB0420F1AC014A195B09DA011296F5
:10262000159780F06282738251834083D9016D9344
:102630007C93E114F10471F0D7011396FC93EE93AF
:10264000129776CF22968C0F9D1FF901918380837C
:10265000F301EFCFF093D503E093D40369CF48168D
:10266000590608F42C017D01D3019ACFCB010E94B9
:1026700066117C01009749F0AE01B8010E94481331
:10268000C8010E940212870153CF10E000E050CF32
:10269000FB01DC0102C001900D9241505040D8F77F
:1026A0000895FB01DC0101900D920020E1F70895EF
:0426B000F894FFCFCC
:1026B40002000000D6038000000040001400540013
:1026C4000000000037018E00C4008401F500D3002F
:1026D400E70000000000420415045805EB030E0453
:1026E400FB03EC030000000072068E00580584030F
:1026F400534D41525420434F46464545204D414396
:1027040048494E450050726573732053656C656388
:102714007400746F206D616B6520636F6666656518
:102724000048494748004D454449554D004C4F57D2
:102734000053656C656374205375676172204C6542
:1027440076656C0053656C656374204D696C6B2011
:102754004C6576656C003730206465672063656C72
:1027640063697573003630206465672063656C6344
:10277400697573003530206465672063656C63692F
:1027840075730053656C6563742054656D70657270
:102794006174757265004D616B696E6720436F6685
:1027A4006665652E2E2E00436F6666656520697327
:1027B400205245414459210053656C65637420508F
:0C27C4006F77646572204C6576656C00D0
:00000001FF
