:020000040000FA
:100000000C9472000C949A000C949A000C949A0030
:100010000C949A000C949A000C949A000C949A00F8
:100020000C949A000C949A000C949A000C949A00E8
:100030000C949A000C949A000C949A000C949A00D8
:100040000C94DD040C949A000C94AB040C9485047D
:100050000C949A000C949A000C949A000C949A00B8
:100060000C949A000C949A00005EBCE2613FDD8320
:10007000C29C7E20A3FD1F41009D23BE46DB65F888
:100080008C11AF32CA57E974000000080002010069
:100090000003040700000000000000000000000052
:1000A000250028002B0000000000240027002A0063
:1000B00000000000230026002900040404040404B6
:1000C0000404020202020202030303030303010207
:1000D00004081020408001020408102001020408D6
:1000E0001020270511241FBECFEFD8E0DEBFCDBF03
:1000F00011E0A0E0B1E0ECEDF5E102C005900D9259
:10010000AC33B107D9F722E0ACE3B1E001C01D92F6
:10011000AB30B207E1F710E0C2E7D0E004C02197AE
:10012000FE010E94E60AC137D107C9F70E94D40533
:100130000C94EC0A0C940000AF92BF92CF92DF9225
:10014000EF92FF920F931F93CF93DF936C017B018C
:100150008B01040F151FEB015E01AE18BF08C0171D
:10016000D10759F06991D601ED91FC910190F08190
:10017000E02DC6010995892B79F7C501DF91CF9153
:100180001F910F91FF90EF90DF90CF90BF90AF90B5
:100190000895FC01538D448D252F30E0842F90E08D
:1001A000821B930B541710F0CF9608950197089572
:1001B000FC01918D828D981761F0A28DAE0FBF2F3B
:1001C000B11D5D968C91928D9F5F9F73928F90E091
:1001D00008958FEF9FEF0895FC01918D828D981700
:1001E00031F0828DE80FF11D858D90E008958FEF3D
:1001F0009FEF0895FC01918D228D892F90E0805C06
:100200009F4F821B91098F739927089589E491E08C
:100210000E94FA0021E0892B09F420E0822F089542
:1002200080E090E0892B29F00E94060181110C9456
:1002300000000895FC01A48DA80FB92FB11DA35A89
:10024000BF4F2C91848D90E001968F739927848FF6
:10025000A689B7892C93A089B1898C918370806419
:100260008C93938D848D981306C00288F389E02DBA
:1002700080818F7D80830895EF92FF920F931F936B
:10028000CF93DF93EC0181E0888F9B8D8C8D981349
:100290001AC0E889F989808185FF15C09FB7F89455
:1002A000EE89FF896083E889F989808183708064A1
:1002B00080839FBF81E090E0DF91CF911F910F91EC
:1002C000FF90EF900895F62E0B8D10E00F5F1F4FFB
:1002D0000F731127E02E8C8D8E110CC00FB607FC0A
:1002E000FACFE889F989808185FFF5CFCE010E9498
:1002F0001A01F1CFEB8DEC0FFD2FF11DE35AFF4FEB
:10030000F0829FB7F8940B8FEA89FB898081806225
:10031000CFCFCF93DF93EC01888D8823B9F0AA89E2
:10032000BB89E889F9898C9185FD03C0808186FDB0
:100330000DC00FB607FCF7CF8C9185FFF2CF8081FF
:1003400085FFEDCFCE010E941A01E9CFDF91CF9159
:10035000089590E0FC01E857FF4F2491FC01E2531F
:10036000FF4F3491FC01E654FF4FE491EE23C9F0B6
:10037000222339F0233001F1A8F4213019F1223081
:1003800029F1F0E0EE0FFF1FE456FF4FA591B49165
:100390008FB7F894EC91611126C030953E233C93C1
:1003A0008FBF08952730A9F02830C9F0243049F7CD
:1003B000809180008F7D03C0809180008F77809333
:1003C0008000DFCF84B58F7784BDDBCF84B58F7D90
:1003D000FBCF8091B0008F778093B000D2CF809117
:1003E000B0008F7DF9CF3E2BDACF3FB7F8948091E4
:1003F0003D0190913E01A0913F01B091400126B591
:10040000A89B05C02F3F19F00196A11DB11D3FBF4C
:10041000BA2FA92F982F8827BC01CD01620F711D1B
:10042000811D911D42E0660F771F881F991F4A9515
:10043000D1F708958F929F92AF92BF92CF92DF92A1
:10044000EF92FF926B017C010E94F5014B015C0170
:10045000C114D104E104F104B9F00E94F501681956
:1004600079098A099B09683E73408105910580F3EB
:1004700021E0C21AD108E108F10888EE880E83E075
:10048000981EA11CB11CE4CFFF90EF90DF90CF909D
:10049000BF90AF909F908F900895DC0180E06150F5
:1004A00090F09D919827E92FEF70F0E0E859FF4F09
:1004B0002491E92FE295EF70F0E0E858FF4FE491C6
:1004C000822F8E27ECCF0895DC012C911196ED91AF
:1004D000FC91F8948181822B81839281322F309517
:1004E0009323928387E090E00197F1F78181832342
:1004F000818383E290E00197F1F790817894EFECAB
:10050000F0E03197F1F7922381E009F480E008955B
:10051000FC0190810180F281E02D292F209560FF60
:1005200014C0F8948281822382838181892B818304
:10053000A3E2B0E01197F1F78281982B928378942F
:1005400087ED90E00197F1F70895F8948281822376
:1005500082838181892B8183AFEFB0E01197F1F71E
:100560008281982B928378948FE090E0EBCFDF929A
:10057000EF92FF920F931F93CF93DF93EC01D62E50
:10058000E42E08E010E0FF24F39461E08D2D8F212C
:1005900009F460E0CE010E948802FF0C01501109AD
:1005A000A1F7E11010C0F894E981FA819181888166
:1005B000809589238183E981FA8192818881809560
:1005C000892382837894DF91CF911F910F91FF90BF
:1005D000EF90DF900895EF92FF920F931F93CF93C8
:1005E000DF938C017B0140E065E50E94B702E701E3
:1005F00088E0E80EF11C699140E0C8010E94B70252
:10060000CE15DF05C1F7DF91CF911F910F91FF90BC
:10061000EF900895FC0190810180F281E02DF89423
:100620008181292F20958223818378943DE743E0BF
:1006300050E0315029F1DA011197F1F780818923D7
:10064000C1F3F8948281822382838181892B818303
:100650007894ABE7B7E01197F1F7F89481818223A2
:100660008183A3E1B1E01197F1F78081982381E0C4
:1006700009F080E07894E3E6F6E03197F1F7089529
:1006800080E008956F927F928F929F92AF92BF9277
:10069000CF92DF92EF92FF920F931F93CF93DF934E
:1006A0008C01EB018091EF019091F0010E940A030F
:1006B000882309F43FC0B8018091EF019091F001C7
:1006C0000E94EB0240E06EEB8091EF019091F0010F
:1006D0000E94B7027E016E0189E0C80ED11C8E0116
:1006E000A090EF01B090F00188E0882E912C712C41
:1006F00066246394C5010E94640281117628660C09
:10070000E1E08E1A9108B1F7F80171928F01CE16CF
:10071000DF0631F78091EF019091F0010E940A030A
:10072000813041F4F70181917F01811105C0E0170B
:10073000F107C1F790E008C068E0CE010E944D02C9
:1007400091E028852813F6CF892FDF91CF911F9153
:100750000F91FF90EF90DF90CF90BF90AF909F9060
:100760008F907F906F900895BF92CF92DF92EF921B
:10077000FF920F931F93CF93DF93EC01B62EC72EFA
:100780008D85811105C0CE010E940A0381110EC022
:100790001B861D861C8680E0DF91CF911F910F91F3
:1007A000FF90EF90DF90CF90BF90089540E060EF12
:1007B000CE010E94B70201E0E12CD12C11E0CE0164
:1007C0000E946402F82ECE010E94640291E0F912A8
:1007D00018C0813099F51134D8F2DB86D11002C0EF
:1007E00081E08D878B81882399F22396EB2DFC2D58
:1007F000CF01089629912193E817F907D9F781E0ED
:10080000CBCFEE2DF0E0F8120FC08B851817A0F4B7
:10081000DE01AE0FBF1F13968C91802379F4F12C6B
:10082000193008F41C87D12EEC0FFD1F8381902F07
:100830009095892383830AC08113F1CFFE01EE0DC9
:10084000F11D8381802B8383FF24F3946F2DCE01D0
:100850000E9488021F5F000F11F4E39401E087E01B
:100860008E1508F0ACCFB7CFFC0101900020E9F75E
:100870003197AF01481B590BBC0189E491E00C94FE
:100880009C008F929F92AF92BF920F931F93CF9332
:10089000DF93CDB7DEB7A1970FB6F894DEBF0FBEDA
:1008A000CDBF19A2423008F44AE08E010F5D1F4F00
:1008B000842E912CB12CA12CA50194010E94B00A88
:1008C000E62FB901CA01EA30F4F4E05DD801EE93F5
:1008D0008D01232B242B252B79F790E080E01097B6
:1008E00019F0CD010E943404A1960FB6F894DEBF32
:1008F0000FBECDBFDF91CF911F910F91BF90AF90F1
:100900009F908F900895E95CE1CF1F920F920FB6F0
:100910000F9211242F933F934F935F936F937F9385
:100920008F939F93AF93BF93EF93FF9389E491E0ED
:100930000E941A01FF91EF91BF91AF919F918F910A
:100940007F916F915F914F913F912F910F900FBECB
:100950000F901F9018951F920F920FB60F921124AF
:100960002F938F939F93EF93FF93E0915901F09111
:100970005A018081E0915F01F091600182FD1BC00E
:100980009081809162018F5F8F7320916301821744
:1009900041F0E0916201F0E0E75BFE4F958F8093BC
:1009A0006201FF91EF919F918F912F910F900FBE58
:1009B0000F901F9018958081F4CF1F920F920FB661
:1009C0000F9211242F933F938F939F93AF93BF93D5
:1009D0008091410190914201A0914301B091440165
:1009E00030913C0123E0230F2D3758F50196A11DCE
:1009F000B11D20933C018093410190934201A0934B
:100A00004301B093440180913D0190913E01A0913A
:100A10003F01B09140010196A11DB11D80933D01A0
:100A200090933E01A0933F01B0934001BF91AF91DD
:100A30009F918F913F912F910F900FBE0F901F901C
:100A4000189526E8230F0296A11DB11DD2CFCF9392
:100A5000DF9310924C0110924B0188EE93E0A0E0DE
:100A6000B0E080934D0190934E01A0934F01B0935D
:100A700050018AE091E090934A018093490185EC0E
:100A800090E0909356018093550184EC90E0909310
:100A900058018093570180EC90E090935A01809325
:100AA000590181EC90E090935C0180935B0182ECB2
:100AB00090E090935E0180935D0186EC90E09093CE
:100AC000600180935F0110926201109263011092A5
:100AD00064011092650140ED50E0FA0164918CEBE5
:100AE00090E0FC0124912223C1F030E0220F331F5B
:100AF000F901EA55FF4FA591B491F901E456FF4F72
:100B0000C591D4917FB7F8943C91262F209532233C
:100B10003C933881232328837FBFFA01449140937B
:100B2000FD01FC018491E82FF0E0EE0FFF1FE0557E
:100B3000FF4F859194919093FF018093FE01109255
:100B4000080210920A0210920902109207021092F3
:100B500006021092050210920402109203021092F3
:100B6000020210920102109200021092FC011092F7
:100B7000FB011092E7018DEF91E09093F0018093DB
:100B8000EF011092ED011092EE011092E60189E062
:100B90008093E90181E08093EA018093EB018093E7
:100BA000EC01DF91CF910895CF93DF93CDB7DEB7FE
:100BB00061970FB6F894DEBF0FBECDBF789484B5B1
:100BC000826084BD84B5816084BD85B5826085BD49
:100BD00085B5816085BD80916E00816080936E00D7
:100BE00010928100809181008260809381008091C9
:100BF000810081608093810080918000816080937A
:100C000080008091B10084608093B1008091B00039
:100C100081608093B00080917A00846080937A0034
:100C200080917A00826080937A0080917A0081605E
:100C300080937A0080917A00806880937A00109285
:100C4000C100E091EF01F091F00113861586148642
:100C500012861186108617821682158214821382DC
:100C60001092ED011092EE0111E0BE01665F7F4F20
:100C70008091EF019091F0010E94B403882309F460
:100C800075C067E0CE010A960E944D0299898913CA
:100C9000ECCF8091ED018F5F8093ED018A858832E2
:100CA00031F008F049C0803111F08232F1F68091C4
:100CB000EE018F5F8093EE018091E601811128C0E3
:100CC0008091EF019091F0010E940A03BE01665FDE
:100CD0007F4F8091EF019091F0010E94EB0240E084
:100CE00064EB8091EF019091F0010E94B702809136
:100CF000EF019091F0010E946402082F8091EF01B2
:100D00009091F0010E940A03011102C01093E601C4
:100D10008A858031E1F0BE016F5F7F4FCE010A9678
:100D20000E944203882331F08D818F33D9F058F42B
:100D30008F31D1F080E00EC08B3309F4B8CF82340C
:100D400009F093CFB4CF8F3521F08F3799F78CE02E
:100D500001C08BE09091E901981708F086CF80934D
:100D6000E90183CF8AE0F6CF89E0F4CFE091590121
:100D7000F0915A0182E08083E0915501F091560193
:100D80001082E0915701F09158018FEC808310920E
:100D90006101E0915D01F0915E0186E08083E09168
:100DA0005B01F0915C01808180618083E0915B0157
:100DB000F0915C01808188608083E0915B01F0911B
:100DC0005C01808180688083E0915B01F0915C012F
:100DD00080818F7D8083E7EDF0E02491E3ECF0E00B
:100DE0008491882399F090E0880F991FFC01EA55BF
:100DF000FF4FA591B491FC01E456FF4F859194916A
:100E00008FB7F894EC91E22BEC938FBF00E010E0E9
:100E10008091EF019091F0010E940A0340E06CEC98
:100E20008091EF019091F0010E94B7024091E6019C
:100E300064E48091EF019091F0010E94B7028091EB
:100E4000EA01882391F1E091E9018091EB01882387
:100E500009F49DC08091E601811199C08FB7F89483
:100E6000C0904101D0904201E0904301F0904401D4
:100E70008FBF8091EF019091F0010E946402813058
:100E8000A1F02FB7F8948091410190914201A09177
:100E90004301B09144012FBF8C199D09AE09BF09D0
:100EA0008E3E9240A105B10520F3E091EF01F09153
:100EB000F001138615861486128611861086178215
:100EC0001682158214821382BE01665F7F4F809165
:100ED000EF019091F0010E94B403811180C060E0A5
:100EE00070E08EEF92EC6093450170934601809321
:100EF00047019093480162E370E080E090E00E9437
:100F00001A0288E191E00E943404C0904501D0901B
:100F10004601E0904701F0904801A7019601C70102
:100F2000B6010E94970A882309F4AAC086E291E0DC
:100F30000E94340460EB89E491E00E943C0182E36A
:100F400091E00E94340489E391E00E94340420E09F
:100F500030E040EA52E46091450170914601809191
:100F60004701909148010E943F0961E087FF60E0DE
:100F700089E00E94A9010115110509F449CF0E94D9
:100F80000601882309F444CF0E94000041CFE950B4
:100F90008EEE92E0E33038F4F0E0EE0FFF1FE05009
:100FA000FF4F808191816C01990FEE08FF088091BD
:100FB000E701882329F060E08091E8010E94A901FF
:100FC000C701B6010E941A028091E701882309F443
:100FD0006CCF61E08091E8010E94A90166CF67E0D3
:100FE000CE010A960E944D029989891378CFBE01DD
:100FF0006F5F7F4FCE010A960E944203882309F457
:101000006ECF6A8170E0762F6627770F770F770FA4
:10101000298148E0249F90011124262B372B8A85B3
:101020008031E1F468856623C9F070E08F81AB01FF
:10103000481B5109CA019695982F8827979587953F
:101040000E949C0ACB018097B90153E0660F771F7D
:101050005A95E1F760789C01260F371F213854EE2E
:1010600035070CF43CCFB901330F880B990B0E9464
:10107000750920E030E040E05CE30E942A0A33CFAB
:1010800046015701E894B7F82FEF3FEF4FE75FE7CE
:10109000C501B4010E94970A81110DC02FEF3FEFE7
:1010A0004FE75FE7C501B4010E943F0918161CF421
:1010B0008AE291E03DCF2FEF3FEF4FE75FE4C701BA
:1010C000B6010E94250A18161CF48EE291E030CF7A
:1010D0002FEF3FEF4FE75FECC701B6010E943F09DA
:1010E00087FDF3CF20E030E0A901C701B6010E94DF
:1010F0003F0987FF09C06DE289E491E00E943C014D
:10110000F7FAF094F7F8F0942AE037ED43EA5BE35E
:10111000C701B6010E94D3084B015C010E9444093B
:101120006B017C010E9473099B01AC01C501B401F4
:101130000E94D2084B015C014AE0C701B6010E943F
:1011400041046EE289E491E00E943C0120E030E03D
:1011500040E251E4C501B4010E942A0A4B015C013E
:101160000E9444096B01F12CE12C4AE0C701B60151
:101170000E944104C701B6010E9473099B01AC01A2
:10118000C501B4010E94D20820E030E040E251E401
:101190000E942A0A0E94440990E080E04AE00E94EE
:1011A0004104C8CE5058BB27AA270E94EA080C94D5
:1011B000EB090E94DD0938F00E94E40920F039F4BF
:1011C0009F3F19F426F40C94DA090EF4E095E7FB3E
:1011D0000C94D409E92F0E94FC0958F3BA1762074E
:1011E00073078407950720F079F4A6F50C941E0A7E
:1011F0000EF4E0950B2EBA2FA02D0B01B901900132
:101200000C01CA01A0011124FF27591B99F0593F75
:1012100050F4503E68F11A16F040A22F232F342FBD
:101220004427585FF3CF469537952795A795F0400B
:101230005395C9F77EF41F16BA0B620B730B840B20
:10124000BAF09150A1F0FF0FBB1F661F771F881FD8
:10125000C2F70EC0BA0F621F731F841F48F4879530
:1012600077956795B795F7959E3F08F0B0CF939522
:10127000880F08F09927EE0F9795879508950E949B
:10128000B00908F481E008950E94040A88F09F578D
:1012900098F0B92F9927B751B0F0E1F0660F771F9A
:1012A000881F991F1AF0BA95C9F714C0B13091F090
:1012B0000E941E0AB1E008950C941E0A672F782F31
:1012C0008827B85F39F0B93FCCF386957795679555
:1012D000B395D9F73EF490958095709561957F4FC1
:1012E0008F4F9F4F0895E89409C097FB3EF4909567
:1012F0008095709561957F4F8F4F9F4F9923A9F0EF
:10130000F92F96E9BB279395F6958795779567957D
:10131000B795F111F8CFFAF4BB0F11F460FF1BC0C1
:101320006F5F7F4F8F4F9F4F16C0882311F096E954
:1013300011C0772321F09EE8872F762F05C0662302
:1013400071F096E8862F70E060E02AF09A95660FBB
:10135000771F881FDAF7880F9695879597F9089574
:10136000990F0008550FAA0BE0E8FEEF16161706B6
:10137000E807F907C0F012161306E407F50798F01E
:10138000621B730B840B950B39F40A2661F0232B37
:10139000242B252B21F408950A2609F4A140A695B3
:1013A0008FEF811D811D089597F99F6780E870E098
:1013B00060E008959FEF80EC089500240A941616CB
:1013C000170618060906089500240A941216130633
:1013D000140605060895092E0394000C11F48823C1
:1013E00052F0BB0F40F4BF2B11F460FF04C06F5FDD
:1013F0007F4F8F4F9F4F089557FD9058440F551FB3
:1014000059F05F3F71F04795880F97FB991F61F086
:101410009F3F79F087950895121613061406551FFD
:10142000F2CF4695F1DF08C0161617061806991F69
:10143000F1CF86957105610508940895E894BB275E
:1014400066277727CB0197F908950E94B00908F421
:101450008FEF08950E943D0A0C94EB090E94DD096C
:1014600038F00E94E40920F0952311F00C94D4097F
:101470000C94DA0911240C941F0A0E94FC0970F3E1
:10148000959FC1F3950F50E0551F629FF001729F29
:10149000BB27F00DB11D639FAA27F00DB11DAA1F38
:1014A000649F6627B00DA11D661F829F2227B00D85
:1014B000A11D621F739FB00DA11D621F839FA00D10
:1014C000611D221F749F3327A00D611D231F849F60
:1014D000600D211D822F762F6A2F11249F575040B7
:1014E0009AF0F1F088234AF0EE0FFF1FBB1F661F32
:1014F000771F881F91505040A9F79E3F510580F0FB
:101500000C94D4090C941F0A5F3FE4F3983ED4F383
:10151000869577956795B795F795E7959F5FC1F79E
:10152000FE2B880F911D9695879597F908950E9437
:10153000B009880B990B089597FB072E16F40094B9
:1015400007D077FD09D00E94D20A07FC05D03EF4EF
:10155000909581959F4F0895709561957F4F08955F
:10156000A1E21A2EAA1BBB1BFD010DC0AA1FBB1FA7
:10157000EE1FFF1FA217B307E407F50720F0A21B19
:10158000B30BE40BF50B661F771F881F991F1A9486
:1015900069F760957095809590959B01AC01BD01B0
:1015A000CF010895AA1BBB1B51E107C0AA1FBB1F97
:1015B000A617B70710F0A61BB70B881F991F5A95DF
:1015C000A9F780959095BC01CD010895EE0FFF1FFE
:1015D0000590F491E02D0994F894FFCF5E00BC00D3
:1015E0007701000000003C019C00C9008901FA005D
:1015F000D800EC0054656D70657261747572653A5F
:1016000020006E616E00696E66006F766600432092
:08161000207C2020000D0A00DF
:107E0000112484B714BE81FFF0D085E080938100F7
:107E100082E08093C00088E18093C10086E0809377
:107E2000C20080E18093C4008EE0C9D0259A86E02C
:107E300020E33CEF91E0309385002093840096BBD3
:107E4000B09BFECF1D9AA8958150A9F7CC24DD24C4
:107E500088248394B5E0AB2EA1E19A2EF3E0BF2EE7
:107E6000A2D0813461F49FD0082FAFD0023811F036
:107E7000013811F484E001C083E08DD089C08234E0
:107E800011F484E103C0853419F485E0A6D080C0E4
:107E9000853579F488D0E82EFF2485D0082F10E0AE
:107EA000102F00270E291F29000F111F8ED06801E7
:107EB0006FC0863521F484E090D080E0DECF843638
:107EC00009F040C070D06FD0082F6DD080E0C81688
:107ED00080E7D80618F4F601B7BEE895C0E0D1E017
:107EE00062D089930C17E1F7F0E0CF16F0E7DF06D8
:107EF00018F0F601B7BEE89568D007B600FCFDCFD4
:107F0000A601A0E0B1E02C9130E011968C91119780
:107F100090E0982F8827822B932B1296FA010C0160
:107F200087BEE89511244E5F5F4FF1E0A038BF0790
:107F300051F7F601A7BEE89507B600FCFDCF97BE46
:107F4000E89526C08437B1F42ED02DD0F82E2BD052
:107F50003CD0F601EF2C8F010F5F1F4F84911BD097
:107F6000EA94F801C1F70894C11CD11CFA94CF0C13
:107F7000D11C0EC0853739F428D08EE10CD085E9AC
:107F80000AD08FE07ACF813511F488E018D01DD067
:107F900080E101D065CF982F8091C00085FFFCCF94
:107FA0009093C60008958091C00087FFFCCF809118
:107FB000C00084FD01C0A8958091C6000895E0E648
:107FC000F0E098E1908380830895EDDF803219F02E
:107FD00088E0F5DFFFCF84E1DECF1F93182FE3DFCA
:107FE0001150E9F7F2DF1F91089580E0E8DFEE27F6
:047FF000FF270994CA
:027FFE00040479
:00000001FF
