:020000040000FA
:100000000C9462000C948A000C948A000C948A0070
:100010000C948A000C948A000C948A000C948A0038
:100020000C948A000C948A000C948A000C94F805B5
:100030000C948A000C948A000C948A000C948A0018
:100040000C94AE050C948A000C948A000C948A00DF
:100050000C948A000C948A000C948A000C948A00F8
:100060000C94B4060C948A000000000023002600C3
:10007000290000000008000201000003040700003E
:1000800000000000000000000000250028002B00F8
:1000900000000000240027002A00040404040404D3
:1000A0000404020202020202030303030303010227
:1000B00004081020408001020408102001020408F6
:1000C0001020EA0711241FBECFEFD8E0DEBFCDBF5E
:1000D00011E0A0E0B1E0E8ECFBE102C005900D9278
:1000E000AA3CB107D9F722E0AAECB1E001C01D9209
:1000F000A63BB207E1F710E0C2E6D0E004C02197CA
:10010000FE010E94EA0BC136D107C9F70E9415080B
:100110000C94E20D0C940000CF93DF9390E0FC016F
:10012000E255FF4F249186569F4FFC01849188230E
:10013000C1F090E0880F991FFC01E057FF4FC59177
:10014000D491FC01EA57FF4FA591B4919FB7F89461
:100150008881E22FE0958E2388838C91E823EC93AD
:100160009FBFDF91CF910895AF92BF92CF92DF9260
:10017000EF92FF920F931F93CF93DF936C017B015C
:100180008B01040F151FEB015E01AE18BF08C017ED
:10019000D10759F06991D601ED91FC910190F08160
:1001A000E02DC6010995892B79F7C501DF91CF9123
:1001B0001F910F91FF90EF90DF90CF90BF90AF9085
:1001C0000895833081F028F4813099F08230A9F0CD
:1001D00008958730A9F08830C9F08430B1F4809157
:1001E00080008F7D03C0809180008F778093800096
:1001F000089584B58F7784BD089584B58F7DFBCF36
:100200008091B0008F778093B00008958091B00006
:100210008F7DF9CFCF93DF93282F30E0F901EE588F
:10022000FF4F8491F901E255FF4FD491F901E65651
:10023000FF4FC491CC23A1F081110E94E100EC2F6B
:10024000F0E0EE0FFF1FE859FF4FA591B491EC913C
:10025000ED2381E090E009F480E0DF91CF910895F3
:1002600080E090E0FACF1F93CF93DF93282F30E008
:10027000F901EE58FF4F8491F901E255FF4FD491F7
:10028000F901E656FF4FC491CC23A9F0162F811136
:100290000E94E100EC2FF0E0EE0FFF1FEA57FF4F46
:1002A000A591B4918FB7F894EC91111108C0D09535
:1002B000DE23DC938FBFDF91CF911F910895DE2B5A
:1002C000F8CF3FB7F89480918A0290918B02A09169
:1002D0008C02B0918D0226B5A89B05C02F3F19F066
:1002E0000196A11DB11D3FBFBA2FA92F982F8827B6
:1002F000BC01CD01620F711D811D911D42E0660F91
:10030000771F881F991F4A95D1F708958F929F9262
:10031000AF92BF92CF92DF92EF92FF924B015C01BE
:100320000E9461016B017C010E9461016C197D09D1
:100330008E099F09683E734081059105A8F321E06D
:10034000821A9108A108B10888EEC80E83E0D81E71
:10035000E11CF11C81149104A104B10429F7FF9060
:10036000EF90DF90CF90BF90AF909F908F900895C7
:10037000CF92DF92EF92FF92CF93DF93EC01603246
:1003800082E07807CCF5653B710514F064EB70E012
:10039000898128E830E0281B310987FD3395220F39
:1003A000331F220F331F6901330FEE08FF088A81C4
:1003B00028E532E0281B310987FD3395220F331FD2
:1003C000220F331F032E000C440B550B2C193D0933
:1003D0004E095F09DB0177FF02C0B0E0A0E00E9498
:1003E0007A0B24EB30E040E050E00E94500BC20E4C
:1003F000D31EE41EF51EB601E881EC3070F52981AC
:1004000088E890E0821B910927FD9395880F991F3A
:10041000880F991F681779077CF02A8188E592E098
:10042000821B910927FD9395880F991F880F991FAB
:10043000681779070CF4CB010297880F991F4FB703
:10044000F8942E2F30E0F901EE0FFF1FE20FF31F9B
:10045000EF59FD4F928381834FBFDF91CF91FF9082
:10046000EF90DF90CF90089508951F93CF93DF937F
:10047000C1E0C093CB01882399F1D091B8001091CD
:10048000BA008091BC008A7B8093BC0060E082E16E
:100490000E94330160E083E10E9433011092350233
:1004A000C093340210920F0261E082E10E94330196
:1004B00061E083E10E9433018091B9008E7F8093D7
:1004C000B9008091B9008D7F8093B90088E4809352
:1004D000B80085E48093BC001093BA00D093B800B4
:1004E000DF91CF911F9108952091EC01260F3327C2
:1004F000331F21323105ECF420913502FC0190E0EC
:1005000080E0243069F082E00895A091EC0121910F
:10051000AC0144535E4FA40FB52FB11D2C9301962F
:10052000861798F38091EC01680F6093EC0180E0EE
:10053000089581E0089508958FEF9FEF08958FEF5C
:100540009FEF08958091CA0190E09195819591095E
:100550000895CF92DF92EF92FF920F931F93CF9364
:10056000DF937C01CB018A0120913B02222389F099
:10057000EB016B01C40ED51ECC15DD0569F0699148
:10058000D701ED91FC910190F081E02DC701099513
:10059000F3CF642F0E947402C801DF91CF911F91A5
:1005A0000F91FF90EF90DF90CF900895CF93DF935E
:1005B0001F92CDB7DEB7698320913B022223F9F069
:1005C00020915E02203258F021E030E0FC013383BC
:1005D000228390E080E00F90DF91CF910895809189
:1005E0003C02E82FF0E0E35CFD4F998190838F5F40
:1005F00080933C0280935E0281E090E0ECCF61E06A
:10060000CE0101960E947402F7CFCF92DF92EF9253
:10061000FF920F931F93CF93DF93FC01C48121E0DE
:1006200020933B02C0935D0210923C0210925E0246
:100630008385682B81E992E00E94D602D0915E0208
:10064000D13208F092C00E9461016B017C0180915F
:100650003502811165C082E08093350281E080938C
:1006600034028FEF8093330210923202D093310222
:10067000ADE3B2E0E1E1F2E080E0D81385C0109292
:10068000100280911002CC0FC82BC09310028091F1
:100690000F02813009F07CC010920F020E946101AC
:1006A0006B017C01809110028093BB008091370226
:1006B00090913802A0913902B0913A02892B8A2B8D
:1006C0008B2B99F00E946101009137021091380242
:1006D0002091390230913A026C197D098E099F09E7
:1006E0000617170728073907E0F18091BC0083FD42
:1006F000D9CF85EC8093BC000E9461016B017C0125
:1007000080913502823009F445C0809133028F3FD9
:1007100061F180913302803241F18091330225C032
:100720008091370290913802A0913902B0913A023B
:10073000892B8A2B8B2B09F48ACF0E9461010091AF
:100740003702109138022091390230913A026C1927
:100750007D098E099F09061717072807390708F032
:1007600076CF809136020E94350210923C021092A0
:100770005E0210923B02DF91CF911F910F91FF908B
:10078000EF90DF90CF9008959D9191938F5F75CFFB
:1007900085EEB0CF8091370290913802A091390256
:1007A000B0913A02892B8A2B8B2B09F4A9CF0E9496
:1007B0006101009137021091380220913902309185
:1007C0003A026C197D098E099F0906171707280739
:1007D000390708F095CFC5CF90E080E008952EE16D
:1007E000289FB001299F700D11248DE992E00E948D
:1007F000B80164E670E080E090E00E94860170E05D
:1008000060E08DE992E00E94B80164E670E080E06B
:1008100090E00E94860181E080938E0208952EE18F
:10082000289FB001299F700D112480EA92E00E9458
:10083000B80164E670E080E090E00E94860170E01C
:1008400060E080EA92E00E94B80164E670E080E037
:1008500090E00E94860181E080938F0208952EE14E
:10086000289FB001299F700D112483EA92E00E9415
:10087000B80164E670E080E090E00E94860170E0DC
:1008800060E083EA92E00E94B80164E670E080E0F4
:1008900090E00E94860181E0809390020895FC011F
:1008A00001900020E9F73197AF01481B590BBC01BB
:1008B00086EA92E00C94B400FC018081918100975B
:1008C00011F00C948C0C0895EF92FF920F931F93EC
:1008D000CF93DF93EC017B01198218821B821A826D
:1008E0001D821C82FB0101900020E9F731978F01E6
:1008F000061B170BB8016F5F7F4F90E080E00E94EE
:10090000150D0097B9F0998388831B830A832C8186
:100910003D81232B11F4FC0110821D830C83B70150
:1009200088819981DF91CF911F910F91FF90EF9076
:100930000C94DB0D88819981009711F00E948C0C3A
:10094000198218821D821C821B821A82DF91CF912C
:100950001F910F91FF90EF9008950F931F93CF93E6
:100960008C01C62F0E9405036C2F6460C8010E9491
:1009700005036C2F6B7FC8010E94050383EC90E098
:100980000197F1F7CF911F910F910895CF93C82F41
:10099000682F607F86EA92E00E94AD0480E1C89FE4
:1009A000B001112486EA92E0CF910C94AD04E6EAFE
:1009B000F2E08681982F9160968389600C94C6043A
:1009C000CF93DF93CDB7DEB728970FB6F894DEBF8D
:1009D0000FBECDBF98E0E8E0F1E0DE011196019096
:1009E0000D929A95E1F79091AE02961710F46FEF81
:1009F000690F70E0660F771F21E030E02C0F3D1F7C
:100A0000620F731FFB019081890F806828960FB6D3
:100A1000F894DEBF0FBECDBFDF91CF910C94C6041A
:100A200081E00E94C6048BE39FE10197F1F70895EE
:100A30000E9410058EE291E00E944F0462E084E083
:100A40000E94E00483E491E00E944F0463E083E0AD
:100A50000E94E00480E591E00C944F04CF93DF9373
:100A6000EC010E94100560E081E00E94E0044C81EE
:100A70005D816881798186EA92E00E94B40061E03C
:100A800081E00E94E0048FE591E00E944F0462E063
:100A900081E00E94E00483E691E00E944F0463E05D
:100AA00081E00E94E0048AE691E00E944F0464EF36
:100AB00071E080E090E0DF91CF910C9486010F937C
:100AC0001F93CF938C01C62F607F61600E94AD049D
:100AD00080E1C89FB00111246160C8010E94AD048B
:100AE00081E090E0CF911F910F91089585ED809363
:100AF000BC008091370290913802A0913902B091E8
:100B00003A020796A11DB11D23E0B695A7959795CA
:100B100087952A95D1F72091BC0024FD03C010923F
:100B200035020895409137025091380260913902A0
:100B300070913A02452B462B472B69F30097A1058C
:100B4000B10541F025E32A95F1F700000197A109CD
:100B5000B109E1CF809136020C9435021F920F92B9
:100B60000FB60F9211242F933F938F939F93AF93C0
:100B7000BF938091860290918702A0918802B091E4
:100B800089023091850223E0230F2D3758F5019615
:100B9000A11DB11D20938502809386029093870248
:100BA000A0938802B093890280918A0290918B026F
:100BB000A0918C02B0918D020196A11DB11D809370
:100BC0008A0290938B02A0938C02B0938D02BF9106
:100BD000AF919F918F913F912F910F900FBE0F90EA
:100BE0001F90189526E8230F0296A11DB11DD2CFA4
:100BF0001F920F920FB60F9211242F933F934F9392
:100C00005F936F937F938F939F93AF93BF93CF9394
:100C1000DF93EF93FF9380915F02C0916002D0E079
:100C200087FF24C0109285001092840080915F029B
:100C30008F5F80935F0280915F02082E000C990BFA
:100C40008C179D0724F480915F028C30C4F1809151
:100C5000840090918500049680349C4908F47AC001
:100C60008091840090918500049676C080915F0207
:100C7000082E000C990B8C179D07C4F6E0915F02BB
:100C80008E2FEE0F990BFC01EE0FFF1FE80FF91FDF
:100C9000EF59FD4F808186FFC9CFE0915F028E2F13
:100CA000EE0F990BFC01EE0FFF1FE80FF91FEF5934
:100CB000FD4F808160E08F730E943301B7CF209198
:100CC000840030918500E0915F028E2FEE0F990B2A
:100CD000FC01EE0FFF1FE80FF91FEF59FD4F818157
:100CE0009281820F931F9093890080938800E091F6
:100CF0005F028E2FEE0F990BFC01EE0FFF1FE80F26
:100D0000F91FEF59FD4F808186FF11C0E0915F020E
:100D10008E2FEE0F990BFC01EE0FFF1FE80FF91F4E
:100D2000EF59FD4F808161E08F730E943301FF9185
:100D3000EF91DF91CF91BF91AF919F918F917F9173
:100D40006F915F914F913F912F910F900FBE0F9038
:100D50001F90189580E49CE9909389008093880007
:100D60008FEF80935F02E3CF1F920F920FB60F9227
:100D700011242F933F934F935F936F937F938F93A0
:100D80009F93AF93BF93EF93FF938091B900887FB8
:100D9000803609F44AC0F0F5883209F4A5C018F588
:100DA000803109F499C0B8F4882309F4F5C088307B
:100DB00009F492C0FF91EF91BF91AF919F918F91F4
:100DC0007F916F915F914F913F912F910F900FBE47
:100DD0000F901F901895883109F486C0803251F722
:100DE0008093330214C0803409F49BC040F48033F4
:100DF000B9F38833F9F68093330285ECAEC08035C1
:100E000009F483C0883509F494C0883499F60E94A7
:100E10007605D0CF883909F48AC038F5883729F0AB
:100E200050F4883611F0803729F683E0809335023C
:100E300010920E0255C0883809F479C0803919F033
:100E4000803809F0B7CF80910E02803208F06FC071
:100E5000E0910E0281E08E0F80930E028091BB0024
:100E6000F0E0E251FE4F80833BC0803B39F0D0F48C
:100E7000803A09F477C0883A09F09CCF84E08093E7
:100E800035021092ED011092EC01F0E0E0E00995DE
:100E90008091EC0181110FC081E08093EC011092F0
:100EA000CC0109C0803C09F4A8CF883C09F4A5CF47
:100EB000883B09F07FCFE091ED0181E08E0F8093B8
:100EC000ED01F0E0E453FE4F80818093BB009091F0
:100ED000ED018091EC0129C0809110028093BB004C
:100EE00085EC8093BC0066CF9091320280913102F4
:100EF000981758F5E091320281E08E0F809332020C
:100F0000F0E0EF5EFD4F8081E9CFE091320281E0B9
:100F10008E0F809332028091BB00F0E0EF5EFD4FB8
:100F2000808390913202809131029817C8F285E84F
:100F3000D8CFE091320281E08E0F8093320280910F
:100F4000BB00F0E0EF5EFD4F8083809134028111A1
:100F50005ECF81E080930F0284EA8093BC00109200
:100F6000350228CF85EC8093BC0010923502809129
:100F70000E02803230F4E0910E02F0E0E251FE4FBA
:100F8000108260910E0270E08EEE91E0F0E0E0E001
:100F9000099510920E020ECF1092330238CFFC0149
:100FA000909160029C3098F481E0890F80936002F8
:100FB0009083892F90E0FC01EE0FFF1FE80FF91FCF
:100FC000EF59FD4F88EB9BE09283818308958FEF6B
:100FD00080830895E1E9F2E01382128288EE93E0C3
:100FE000A0E0B0E084839583A683B78384E191E099
:100FF00091838083E6EAF2E01382128286E291E036
:101000009183808387E2848384E1818784E082877F
:10101000138683EA92E00E94CF0780EA92E00E9462
:10102000CF078DE992E00C94CF07CF93DF9300D0E8
:1010300000D000D0CDB7DEB7789484B5826084BD8F
:1010400084B5816084BD85B5826085BD85B58160CC
:1010500085BD80916E00816080936E00109281004A
:101060008091810082608093810080918100816005
:1010700080938100809180008160809380008091C6
:10108000B10084608093B1008091B0008160809352
:10109000B00080917A00846080937A0080917A0019
:1010A000826080937A0080917A00816080937A00D8
:1010B00080917A00806880937A001092C1008091BC
:1010C000AB0288608093AB0284E0F82EF092AE020F
:1010D00062E370E080E090E00E9486016091B102DE
:1010E00086EA92E00E94050368EE73E080E090E0FB
:1010F0000E94860160E386EA92E00E94AD040BE460
:1011000016E4C8010197F1F760E386EA92E00E94D5
:10111000AD04C8010197F1F760E386EA92E00E940E
:10112000AD0483E592E00197F1F760E286EA92E090
:101130000E94AD048091AB0280620E94C604F092CE
:10114000AC028CE00E94C6040E94100582E08093ED
:10115000AD0286E00E94C60482E00E94C6048BE3D2
:101160009FE10197F1F70E9418058EE00E948C0024
:101170008FE00E948C0080E10E948C0081E10E943F
:101180008C0090E0A92E90E0B92E02E010E023E060
:10119000E22EF12C34E0C32ED12C80E10E940A0112
:1011A000019709F04AC26FE671E0CE0101960E94F4
:1011B0006404CE0101960E942E05CE0101960E9484
:1011C0005C048091000190910101029799F561E022
:1011D00080E00E94E0040E94D70480E10E940A019E
:1011E000019751F464EF71E080E090E00E94860185
:1011F00081E090E00E942F048FE00E940A01019795
:1012000051F4F0920101E092000164EF71E080E09E
:1012100090E00E9486018EE00E940A01019751F43D
:10122000D0920101C092000164EF71E080E090E093
:101230000E9486018091000190910101039729F598
:1012400062E080E00E94E0040E94D70480E10E94F6
:101250000A01019751F464EF71E080E090E00E9490
:10126000860182E090E00E942F048FE00E940A0134
:10127000019709F0E9C1D0920101C092000164EF29
:1012800071E080E090E00E948601809100019091E1
:101290000101049729F563E080E00E94E0040E94C8
:1012A000D70480E10E940A01019751F464EF71E0D4
:1012B00080E090E00E94860183E090E00E942F048D
:1012C0008FE00E940A01019709F0C9C11093010142
:1012D0000093000164EF71E080E090E00E948601DD
:1012E00080919002882309F46CCF62E871E0CE010E
:1012F00001960E946404CE0101960E942E05CE0143
:1013000001960E945C0410930101009300018091FA
:101310009002882309F4A4C08091000190910101FA
:10132000029799F561E080E00E94E0040E94D704F2
:1013300080E10E940A01019751F464EF71E080E0BE
:1013400090E00E94860181E090E00E940F048FE00F
:101350000E940A01019751F4F0920101E09200010C
:1013600064EF71E080E090E00E9486018EE00E94D0
:101370000A01019751F4D0920101C092000164EF7B
:1013800071E080E090E00E948601809100019091E0
:101390000101039799F562E080E00E94E0040E9459
:1013A000D70480E10E940A01019751F464EF71E0D3
:1013B00080E090E00E94860182E090E00E940F04AD
:1013C0008FE00E940A01019751F4D0920101C0926E
:1013D000000164EF71E080E090E00E9486018EE001
:1013E0000E940A01019751F410930101009300013A
:1013F00064EF71E080E090E00E948601809100013E
:1014000090910101049729F563E080E00E94E004D7
:101410000E94D70480E10E940A01019751F464EF11
:1014200071E080E090E00E94860183E090E00E94FD
:101430000F048FE00E940A01019709F01BC110936D
:1014400001010093000164EF71E080E090E00E94F0
:10145000860180918F02882309F459CF109290025F
:1014600066E971E0CE0101960E946404CE01019606
:101470000E942E05CE0101960E945C04109301018A
:101480000093000180918F02882309F4A2C080910B
:10149000000190910101029799F561E080E00E94BE
:1014A000E0040E94D70480E10E940A01019751F4F0
:1014B00064EF71E080E090E00E94860181E090E0BE
:1014C0000E94EF038FE00E940A01019751F4F0920D
:1014D0000101E092000164EF71E080E090E00E9481
:1014E00086018EE00E940A01019751F4D092010119
:1014F000C092000164EF71E080E090E00E948601FC
:101500008091000190910101039799F562E080E0DC
:101510000E94E0040E94D70480E10E940A01019722
:1015200051F464EF71E080E090E00E94860182E077
:1015300090E00E94EF038FE00E940A01019751F4AE
:10154000D0920101C092000164EF71E080E090E070
:101550000E9486018EE00E940A01019751F41093C7
:1015600001010093000164EF71E080E090E00E94CF
:1015700086018091000190910101049729F563E0B3
:1015800080E00E94E0040E94D70480E10E940A01EA
:10159000019751F464EF71E080E090E00E948601D1
:1015A00083E090E00E94EF038FE00E940A01019720
:1015B00009F06BC0109301010093000164EF71E02A
:1015C00080E090E00E94860180918E02882309F4D9
:1015D00059CF1093010100930001109290021092D4
:1015E0008F0210928E020E9410058091AC028E7FB5
:1015F0008093AC0288600E94C60461E082E00E9491
:10160000E00488EA91E00E944F0468EB7BE080E010
:1016100090E00E9486010E94100561E082E00E9435
:10162000E00489EB91E00E944F0468EE73E080E0F3
:1016300090E00E9486010E941805A114B10409F4EB
:10164000ACCD0E940000A9CD8EE00E940A01019756
:1016500009F046CE109301010093000110CE8EE0F8
:101660000E940A01019709F03BCEF0920101E0923D
:10167000000130CE8EE00E940A01019709F0E9CE08
:10168000F0920101E0920001DECE8EE00E940A019C
:10169000019709F099CFF0920101E09200018ECFFD
:1016A000052E97FB1EF400940E94670B57FD07D090
:1016B0000E94B90B07FC03D04EF40C94670B5095B5
:1016C0004095309521953F4F4F4F5F4F089590952E
:1016D0008095709561957F4F8F4F9F4F08950E9421
:1016E000DB0BA59F900DB49F900DA49F800D911DC5
:1016F00011240895B7FF0C946F0B0E946F0B821B8F
:10170000930B08952F923F924F925F926F927F9228
:101710008F929F92AF92BF92CF92DF92EF92FF9201
:101720000F931F93CF93DF93CDB7DEB7CA1BDB0BAD
:101730000FB6F894DEBF0FBECDBF09942A88398852
:1017400048885F846E847D848C849B84AA84B98459
:10175000C884DF80EE80FD800C811B81AA81B98165
:10176000CE0FD11D0FB6F894DEBF0FBECDBFED0179
:101770000895A1E21A2EAA1BBB1BFD010DC0AA1FD2
:10178000BB1FEE1FFF1FA217B307E407F50720F0EA
:10179000A21BB30BE40BF50B661F771F881F991F65
:1017A0001A9469F760957095809590959B01AC01AE
:1017B000BD01CF010895A29FB001B39FC001A39FB7
:1017C000700D811D1124911DB29F700D811D11247A
:1017D000911D0895EE0FFF1F0590F491E02D0994DF
:1017E0000F931F93CF93DF938230910510F482E023
:1017F00090E0E091B402F091B50230E020E0B0E07A
:10180000A0E0309799F42115310509F44AC0281B4E
:10181000390B24303105D8F58A819B81611571051A
:1018200089F1FB0193838283FE0111C040815181C4
:101830000281138148175907E0F04817590799F4B6
:10184000109761F012960C93129713961C93329690
:10185000CF01DF91CF911F910F9108950093B402B2
:101860001093B502F4CF2115310551F042175307FB
:1018700038F0A901DB019A01BD01DF01F801C1CFF8
:10188000EF01F9CF9093B5028093B402CDCFFE0162
:10189000E20FF31F819391932250310939832883FA
:1018A000D7CF2091B2023091B302232B41F4209183
:1018B0000401309105013093B3022093B2022091CC
:1018C0000201309103012115310541F42DB73EB7D6
:1018D0004091060150910701241B350BE091B202A3
:1018E000F091B302E217F307A0F42E1B3F0B281769
:1018F000390778F0AC014E5F5F4F2417350748F089
:101900004E0F5F1F5093B3024093B20281939193A5
:101910009FCFF0E0E0E09CCFCF93DF930097E9F01A
:10192000FC01329713821282A091B402B091B502E9
:10193000ED0130E020E01097A1F420813181820F89
:10194000931F2091B2023091B3022817390709F092
:1019500061C0F093B302E093B202DF91CF9108959A
:10196000EA01CE17DF07E8F54A815B819E01411548
:101970005105B1F7E901FB83EA8349915991C40FFD
:10198000D51FEC17FD0761F4808191810296840FC9
:10199000951FE90199838883828193819B838A8340
:1019A000F0E0E0E012968D919C9113970097B9F5C5
:1019B0002D913C911197CD010296820F931F20919A
:1019C000B2023091B3022817390739F6309751F532
:1019D0001092B5021092B402B093B302A093B20277
:1019E000BCCFD383C28340815181840F951FC81718
:1019F000D90761F44E5F5F4F88819981480F591F65
:101A0000518340838A819B81938382832115310591
:101A100009F0B0CFF093B502E093B4029ECFFD0180
:101A2000DC01C0CF13821282D7CFB0E0A0E0EBE19F
:101A3000FDE00C94840B8C01009751F4CB010E94C3
:101A4000F00B8C01C801CDB7DEB7E0E10C94A00B20
:101A5000FC01E60FF71F9C0122503109E217F30742
:101A600008F49DC0D901CD91DC911197C617D70715
:101A700098F0C530D10530F3CE010497861797074B
:101A800008F3C61BD70B2297C193D1936D937C9318
:101A9000CF010E948C0CD6CF5B01AC1ABD0A4C0161
:101AA0008C0E9D1EA091B402B091B502512C412C18
:101AB000F12CE12C109731F58091B2029091B30294
:101AC0008815990509F05CC04616570608F058C0FD
:101AD0008091020190910301009741F48DB79EB768
:101AE0004091060150910701841B950BE817F907F7
:101AF00008F055C0F093B302E093B202F90171838C
:101B00006083A0CF8D919C91119712966C90129743
:101B100013967C901397A815B90559F56C0142E00E
:101B2000C40ED11CCA14DB0420F1AC014A195B09B4
:101B3000DA011296159780F0628273825183408396
:101B4000D9016D937C93E114F10471F0D7011396E0
:101B5000FC93EE93129776CF22968C0F9D1FF9017E
:101B600091838083F301EFCFF093B502E093B40249
:101B700069CF4816590608F42C017D01D3019ACF8C
:101B8000CB010E94F00B7C01009749F0AE01B80137
:101B90000E94D20DC8010E948C0C870153CF10E027
:101BA00000E050CFFB01DC0102C001900D924150DA
:101BB0005040D8F70895FB01DC0101900D92002000
:101BC000E1F70895F894FFCF02000000B60280000C
:101BD000000040001400540000000000D602A902DA
:101BE000EC039B02A2029F029C02000000005F0522
:101BF000B400EC033402534D41525420434F464647
:101C00004545204D414348494E4500507265737328
:101C10002053656C65637400746F206D616B652083
:101C2000636F66666565004C4F57004D45444955E6
:101C30004D00484947480053656C656374205375EF
:101C4000676172204C6576656C0053656C656374E2
:101C500020506F77646572204C6576656C00536523
:101C60006C656374204D696C6B204C6576656C0007
:101C70004D616B696E6720436F666665652E2E2E1B
:101C800000436F666665652069732052454144597B
:021C9000210031
:107E0000112484B714BE81FFF0D085E080938100F7
:107E100082E08093C00088E18093C10086E0809377
:107E2000C20080E18093C4008EE0C9D0259A86E02C
:107E300020E33CEF91E0309385002093840096BBD3
:107E4000B09BFECF1D9AA8958150A9F7CC24DD24C4
:107E500088248394B5E0AB2EA1E19A2EF3E0BF2EE7
:107E6000A2D0813461F49FD0082FAFD0023811F036
:107E7000013811F484E001C083E08DD089C08234E0
:107E800011F484E103C0853419F485E0A6D080C0E4
:107E9000853579F488D0E82EFF2485D0082F10E0AE
:107EA000102F00270E291F29000F111F8ED06801E7
:107EB0006FC0863521F484E090D080E0DECF843638
:107EC00009F040C070D06FD0082F6DD080E0C81688
:107ED00080E7D80618F4F601B7BEE895C0E0D1E017
:107EE00062D089930C17E1F7F0E0CF16F0E7DF06D8
:107EF00018F0F601B7BEE89568D007B600FCFDCFD4
:107F0000A601A0E0B1E02C9130E011968C91119780
:107F100090E0982F8827822B932B1296FA010C0160
:107F200087BEE89511244E5F5F4FF1E0A038BF0790
:107F300051F7F601A7BEE89507B600FCFDCF97BE46
:107F4000E89526C08437B1F42ED02DD0F82E2BD052
:107F50003CD0F601EF2C8F010F5F1F4F84911BD097
:107F6000EA94F801C1F70894C11CD11CFA94CF0C13
:107F7000D11C0EC0853739F428D08EE10CD085E9AC
:107F80000AD08FE07ACF813511F488E018D01DD067
:107F900080E101D065CF982F8091C00085FFFCCF94
:107FA0009093C60008958091C00087FFFCCF809118
:107FB000C00084FD01C0A8958091C6000895E0E648
:107FC000F0E098E1908380830895EDDF803219F02E
:107FD00088E0F5DFFFCF84E1DECF1F93182FE3DFCA
:107FE0001150E9F7F2DF1F91089580E0E8DFEE27F6
:047FF000FF270994CA
:027FFE00040479
:00000001FF
