:100000000C9462000C948A000C948A000C948A0070
:100010000C948A000C948A000C948A000C948A0038
:100020000C948A000C948A000C948A000C94640648
:100030000C948A000C948A000C948A000C948A0018
:100040000C941A060C948A000C948A000C948A0072
:100050000C948A000C948A000C948A000C948A00F8
:100060000C9420070C948A00000000002400270054
:100070002A0000000000250028002B0000000000DE
:1000800023002600290004040404040404040202DA
:100090000202020203030303030301020408102007
:1000A0004080010204081020010204081020000012
:1000B0000008000201000003040700000000000027
:1000C0000000560811241FBECFEFD8E0DEBFCDBF21
:1000D00012E0A0E0B1E0EEEBFFE102C005900D926E
:1000E000AA30B107D9F722E0AAE0B2E001C01D9220
:1000F000A93FB207E1F710E0C2E6D0E004C02197C3
:10010000FE010E94E50DC136D107C9F70E948108A2
:100110000C94DD0F0C940000AF92BF92CF92DF924F
:10012000EF92FF920F931F93CF93DF936C017B01AC
:100130008B01040F151FEB015E01AE18BF08C0173D
:10014000D10759F06991D601ED91FC910190F081B0
:10015000E02DC6010995892B79F7C501DF91CF9173
:100160001F910F91FF90EF90DF90CF90BF90AF90D5
:100170000895FC01448155816081718189EE92E08E
:100180000C948C00833081F028F4813099F0823017
:10019000A9F008958730A9F08830C9F08430B1F40F
:1001A000809180008F7D03C0809180008F77809345
:1001B0008000089584B58F7784BD089584B58F7DC0
:1001C000FBCF8091B0008F778093B000089580912D
:1001D000B0008F7DF9CFCF93DF93282F30E0F90166
:1001E000E255FF4F8491F901E656FF4FD491F90192
:1001F000EA57FF4FC491CC23A1F081110E94C200A5
:10020000EC2FF0E0EE0FFF1FE458FF4FA591B491E3
:10021000EC91ED2381E090E009F480E0DF91CF9153
:10022000089580E090E0FACF1F93CF93DF93282FBB
:1002300030E0F901E255FF4F8491F901E656FF4F96
:10024000D491F901EA57FF4FC491CC23A9F0162F9E
:1002500081110E94C200EC2FF0E0EE0FFF1FEE585C
:10026000FF4FA591B4918FB7F894EC91111108C08C
:10027000D095DE23DC938FBFDF91CF911F9108953E
:10028000DE2BF8CFCF93DF9390E0FC01E656FF4FD3
:1002900024918A579F4FFC0184918823D1F090E0EC
:1002A000880F991FFC01E859FF4FA591B491FC01FB
:1002B000EE58FF4FC591D49161110EC09FB7F894CD
:1002C0008C91E22FE0958E238C932881E223E883A2
:1002D0009FBFDF91CF9108958FB7F894EC91E22BF7
:1002E000EC938FBFF6CF3FB7F8948091CC029091FA
:1002F000CD02A091CE02B091CF0226B5A89B05C039
:100300002F3F19F00196A11DB11D3FBFBA2FA92F94
:10031000982F8827BC01CD01620F711D811D911D91
:1003200042E0660F771F881F991F4A95D1F70895FD
:100330008F929F92AF92BF92CF92DF92EF92FF92F5
:100340004B015C010E9473016B017C010E947301EF
:100350006C197D098E099F09683E734081059105DE
:10036000A8F321E0821A9108A108B10888EEC80E0E
:1003700083E0D81EE11CF11C81149104A104B10496
:1003800029F7FF90EF90DF90CF90BF90AF909F90B4
:100390008F900895CF92DF92EF92FF92CF93DF93E9
:1003A000EC01603282E07807CCF5653B710514F012
:1003B00064EB70E0898128E830E0281B310987FD73
:1003C0003395220F331F220F331F6901330FEE08BD
:1003D000FF088A8128E532E0281B310987FD339523
:1003E000220F331F220F331F032E000C440B550B1B
:1003F0002C193D094E095F09DB0177FF02C0B0E00F
:10040000A0E00E94750D24EB30E040E050E00E9437
:100410004B0DC20ED31EE41EF51EB601E881EC3072
:1004200070F5298188E890E0821B910927FD93955A
:10043000880F991F880F991F681779077CF02A8108
:1004400088E592E0821B910927FD9395880F991FFB
:10045000880F991F681779070CF4CB010297880F52
:10046000991F4FB7F8942E2F30E0F901EE0FFF1FC0
:10047000E20FF31FED55FD4F928381834FBFDF9154
:10048000CF91FF90EF90DF90CF90089508951F9344
:10049000CF93DF93C1E0C0930D02882399F1D091EF
:1004A000B8001091BA008091BC008A7B8093BC0098
:1004B00060E082E10E94140160E083E10E94140187
:1004C00010927702C09376021092510261E082E1AD
:1004D0000E94140161E083E10E9414018091B9003F
:1004E0008E7F8093B9008091B9008D7F8093B90091
:1004F00088E48093B80085E48093BC001093BA0030
:10050000D093B800DF91CF911F91089520912E02D2
:10051000260F3327331F21323105ECF42091770267
:10052000FC0190E080E0243069F082E00895A09121
:100530002E022191AC01425F5D4FA40FB52FB11D7A
:100540002C930196861798F380912E02680F609382
:100550002E0280E0089581E0089508958FEF9FEFC7
:1005600008958FEF9FEF089580910C0290E0919590
:10057000819591090895CF92DF92EF92FF920F93A8
:100580001F93CF93DF937C01CB018A0120917D02E1
:10059000222389F0EB016B01C40ED51ECC15DD05BD
:1005A00069F06991D701ED91FC910190F081E02D06
:1005B000C7010995F3CF642F0E948602C801DF911D
:1005C000CF911F910F91FF90EF90DF90CF90089502
:1005D000CF93DF931F92CDB7DEB7698320917D0261
:1005E0002223F9F02091A002203258F021E030E0DF
:1005F000FC013383228390E080E00F90DF91CF9164
:10060000089580917E02E82FF0E0E158FD4F998136
:1006100090838F5F80937E028093A00281E090E0C0
:10062000ECCF61E0CE0101960E948602F7CFCF9217
:10063000DF92EF92FF920F931F93CF93DF93FC0112
:10064000C48121E020937D02C0939F0210927E021C
:100650001092A0028385682B84ED92E00E94E8024C
:10066000D091A002D13208F092C00E9473016B01B8
:100670007C0180917702811165C082E080937702CE
:1006800081E0809376028FEF80937502109274025E
:10069000D0937302AFE7B2E0E3E5F2E080E0D81375
:1006A00085C01092520280915202CC0FC82BC09389
:1006B000520280915102813009F07CC010925102A7
:1006C0000E9473016B017C01809152028093BB00F8
:1006D0008091790290917A02A0917B02B0917C0284
:1006E000892B8A2B8B2B99F00E9473010091790240
:1006F00010917A0220917B0230917C026C197D0965
:100700008E099F090617170728073907E0F180911E
:10071000BC0083FDD9CF85EC8093BC000E9473019F
:100720006B017C0180917702823009F445C0809191
:1007300075028F3F61F180917502803241F18091A5
:10074000750225C08091790290917A02A0917B0276
:10075000B0917C02892B8A2B8B2B09F48ACF0E94C3
:1007600073010091790210917A0220917B023091FD
:100770007C026C197D098E099F0906171707280747
:10078000390708F076CF809178020E9447021092D4
:100790007E021092A00210927D02DF91CF911F91F4
:1007A0000F91FF90EF90DF90CF9008959D919193DE
:1007B0008F5F75CF85EEB0CF8091790290917A02EC
:1007C000A0917B02B0917C02892B8A2B8B2B09F4A0
:1007D000A9CF0E9473010091790210917A022091B1
:1007E0007B0230917C026C197D098E099F090617E6
:1007F00017072807390708F095CFC5CF90E080E0AC
:1008000008950F931F93CF93DF938C0161E08CE0E9
:100810000E94140160ED77E080E090E00E94980172
:1008200060E08CE00E94140185E480937C0080915C
:100830007A00806480937A0080917A0086FDFCCFF4
:1008400080917800C0917900DC2FC82FD0930B02E3
:10085000C0930A020C171D074CF061E083E00E9470
:10086000140161E08DE00E941401F4CF60E08DE09E
:100870000E94140160E083E00E94140161E086E0C0
:100880000E94140160ED77E080E090E00E94980102
:1008900060E086E00E94140181E08093D002DF9145
:1008A000CF911F910F9108952EE1289FB001299FAC
:1008B000700D112480EE92E00E94CA0164E670E09F
:1008C00080E090E00E94980170E060E080EE92E0AD
:1008D0000E94CA0164E670E080E090E00E94980106
:1008E00081E08093D10208952EE1289FB001299FD5
:1008F000700D112483EE92E00E94CA0164E670E05C
:1009000080E090E00E94980170E060E083EE92E069
:100910000E94CA0164E670E080E090E00E949801C5
:1009200081E08093D20208952EE1289FB001299F93
:10093000700D112486EE92E00E94CA0164E670E018
:1009400080E090E00E94980170E060E086EE92E026
:100950000E94CA0164E670E080E090E00E94980185
:1009600081E08093D3020895FC0101900020E9F713
:100970003197AF01481B590BBC0189EE92E00C94F2
:100980008C00FC0180819181009711F00C94870EFE
:100990000895EF92FF920F931F93CF93DF93EC0193
:1009A0007B01198218821B821A821D821C82FB0124
:1009B00001900020E9F731978F01061B170BB80152
:1009C0006F5F7F4F90E080E00E94100F0097B9F0BA
:1009D000998388831B830A832C813D81232B11F407
:1009E000FC0110821D830C83B70188819981DF91FE
:1009F000CF911F910F91FF90EF900C94D60F8881AB
:100A00009981009711F00E94870E198218821D8229
:100A10001C821B821A82DF91CF911F910F91FF9050
:100A2000EF9008950F931F93CF938C01C62F0E94D0
:100A300017036C2F6460C8010E9417036C2F6B7F33
:100A4000C8010E94170383EC90E00197F1F7CF9162
:100A50001F910F910895CF93C82F682F607F89EE63
:100A600092E00E94120580E1C89FB001112489EE36
:100A700092E0CF910C941205E9EEF2E08681982F76
:100A80009160968389600C942B05CF93DF93CDB74B
:100A9000DEB728970FB6F894DEBF0FBECDBF98E043
:100AA000E8E0F1E0DE01119601900D929A95E1F7F0
:100AB0009091F102961710F46FEF690F70E0660FD6
:100AC000771F21E030E02C0F3D1F620F731FFB01E9
:100AD0009081890F806828960FB6F894DEBF0FBE0C
:100AE000CDBFDF91CF910C942B0581E00E942B05A7
:100AF0008BE39FE10197F1F708950E9475058EE25F
:100B000091E00E94B40462E084E00E94450583E421
:100B100091E00E94B40463E083E00E94450580E513
:100B200091E00C94B404CF92DF92EF92FF920F9376
:100B30001F93CF93DF936C017B018A01E9010E942F
:100B4000750560E081E00E944505C6010E94B9007C
:100B500061E081E00E944505C7010E94B90062E0A2
:100B600081E00E944505C8010E94B90063E081E070
:100B70000E944505CE010E94B90064EF71E080E05B
:100B800090E0DF91CF911F910F91FF90EF90DF9058
:100B9000CF900C9498010F931F93CF938C01C62F85
:100BA000607F61600E94120580E1C89FB00111243E
:100BB0006160C8010E94120581E090E0CF911F9111
:100BC0000F91089585ED8093BC00809179029091FA
:100BD0007A02A0917B02B0917C020796A11DB11D03
:100BE00023E0B695A795979587952A95D1F72091FB
:100BF000BC0024FD03C01092770208954091790251
:100C000050917A0260917B0270917C02452B462BB9
:100C1000472B69F30097A105B10541F025E32A951B
:100C2000F1F700000197A109B109E1CF80917802A5
:100C30000C9447021F920F920FB60F9211242F931C
:100C40003F938F939F93AF93BF938091C8029091EE
:100C5000C902A091CA02B091CB023091C70223E031
:100C6000230F2D3758F50196A11DB11D2093C70202
:100C70008093C8029093C902A093CA02B093CB029A
:100C80008091CC029091CD02A091CE02B091CF0282
:100C90000196A11DB11D8093CC029093CD02A0932B
:100CA000CE02B093CF02BF91AF919F918F913F91B0
:100CB0002F910F900FBE0F901F90189526E8230FCD
:100CC0000296A11DB11DD2CF1F920F920FB60F92A7
:100CD00011242F933F934F935F936F937F938F9341
:100CE0009F93AF93BF93CF93DF93EF93FF93809145
:100CF000A102C091A202D0E087FF24C0109285001B
:100D0000109284008091A1028F5F8093A102809154
:100D1000A102082E000C990B8C179D0724F48091DA
:100D2000A1028C30C4F180918400909185000496DA
:100D300080349C4908F47AC08091840090918500A9
:100D4000049676C08091A102082E000C990B8C1796
:100D50009D07C4F6E091A1028E2FEE0F990BFC01C6
:100D6000EE0FFF1FE80FF91FED55FD4F808186FF45
:100D7000C9CFE091A1028E2FEE0F990BFC01EE0F6F
:100D8000FF1FE80FF91FED55FD4F808160E08F7365
:100D90000E941401B7CF2091840030918500E0912A
:100DA000A1028E2FEE0F990BFC01EE0FFF1FE80F33
:100DB000F91FED55FD4F81819281820F931F909312
:100DC000890080938800E091A1028E2FEE0F990B8D
:100DD000FC01EE0FFF1FE80FF91FED55FD4F80815D
:100DE00086FF11C0E091A1028E2FEE0F990BFC013E
:100DF000EE0FFF1FE80FF91FED55FD4F808161E0F9
:100E00008F730E941401FF91EF91DF91CF91BF91F9
:100E1000AF919F918F917F916F915F914F913F9192
:100E20002F910F900FBE0F901F90189580E49CE9B2
:100E300090938900809388008FEF8093A102E3CF85
:100E40001F920F920FB60F9211242F933F934F933F
:100E50005F936F937F938F939F93AF93BF93EF9322
:100E6000FF938091B900887F803609F44AC0F0F57D
:100E7000883209F4A5C018F5803109F499C0B8F496
:100E8000882309F4F5C0883009F492C0FF91EF91EE
:100E9000BF91AF919F918F917F916F915F914F9192
:100EA0003F912F910F900FBE0F901F901895883192
:100EB00009F486C0803251F78093750214C08034E3
:100EC00009F49BC040F48033B9F38833F9F680937A
:100ED000750285ECAEC0803509F483C0883509F40D
:100EE00094C0883499F60E94E205D0CF883909F47D
:100EF0008AC038F5883729F050F4883611F08037E9
:100F000029F683E0809377021092500255C088380A
:100F100009F479C0803919F0803809F0B7CF809191
:100F20005002803208F06FC0E091500281E08E0FD5
:100F3000809350028091BB00F0E0E05DFD4F808324
:100F40003BC0803B39F0D0F4803A09F477C0883A4E
:100F500009F09CCF84E08093770210922F021092C8
:100F60002E02F0E0E0E0099580912E0281110FC081
:100F700081E080932E0210920E0209C0803C09F499
:100F8000A8CF883C09F4A5CF883B09F07FCFE0913A
:100F90002F0281E08E0F80932F02F0E0E25FFD4F81
:100FA00080818093BB0090912F0280912E0229C0F6
:100FB000809152028093BB0085EC8093BC0066CF89
:100FC0009091740280917302981758F5E091740221
:100FD00081E08E0F80937402F0E0ED5AFD4F808126
:100FE000E9CFE091740281E08E0F809374028091CA
:100FF000BB00F0E0ED5AFD4F808390917402809128
:1010000073029817C8F285E8D8CFE091740281E0A6
:101010008E0F809374028091BB00F0E0ED5AFD4F7B
:1010200080838091760281115ECF81E080935102AE
:1010300084EA8093BC001092770228CF85EC8093DD
:10104000BC001092770280915002803230F4E0911F
:101050005002F0E0E05DFD4F10826091500270E0C0
:1010600080E392E0F0E0E0E00995109250020ECFAC
:101070001092750238CFFC019091A2029C3098F436
:1010800081E0890F8093A2029083892F90E0FC0178
:10109000EE0FFF1FE80FF91FED55FD4F88EB9BE0AA
:1010A0009283818308958FEF80830895E4EDF2E0C9
:1010B0001382128288EE93E0A0E0B0E084839583EF
:1010C000A683B78384E191E091838083E9EEF2E027
:1010D0001382128286E291E09183808387E2848387
:1010E00084E1818784E08287138686EE92E00E9405
:1010F0003B0883EE92E00E943B0880EE92E00C9465
:101100003B08CF93DF93CDB7DEB768970FB6F8945F
:10111000DEBF0FBECDBF789484B5826084BD84B538
:10112000816084BD85B5826085BD85B5816085BDE2
:1011300080916E00816080936E001092810080919A
:101140008100826080938100809181008160809322
:101150008100809180008160809380008091B10047
:1011600084608093B1008091B00081608093B00072
:1011700080917A00846080937A0080917A00826006
:1011800080937A0080917A00816080937A008091C8
:101190007A00806880937A001092C1008091EE02FC
:1011A00088608093EE0294E0F92EF092F10262E3FF
:1011B00070E080E090E00E9498016091F40289EE76
:1011C00092E00E94170368EE73E080E090E00E94D6
:1011D000980160E389EE92E00E9412050BE416E4A8
:1011E000C8010197F1F760E389EE92E00E941205D1
:1011F000C8010197F1F760E389EE92E00E941205C1
:1012000083E592E00197F1F760E289EE92E00E94B7
:1012100012058091EE0280620E942B05F092EF028F
:101220008CE00E942B050E94750582E08093F002FD
:1012300086E00E942B0582E00E942B058BE39FE154
:101240000197F1F70E947D0570E060E083EE92E087
:101250000E94CA0170E060E086EE92E00E94CA013E
:1012600070E060E080EE92E00E94CA0160E08EE0F3
:101270000E94420160E08FE00E94420160E080E154
:101280000E94420160E081E10E94420160E085E04D
:101290000E94420161E083E00E94420161E086E039
:1012A0000E94420161E08CE00E94420161E08DE019
:1012B0000E94420123E0E22EF12C34E0C32ED12C17
:1012C00002E010E080E0A82E80E0B82E80E10E94CD
:1012D000EB00019709F0A1C36FE571E0CE014396E1
:1012E0000E94C90464E671E0CE010D960E94C90413
:1012F0006BE671E0CE0107960E94C9046FE671E0CB
:10130000CE0101960E94C9049E012D5E3F4FAE01A1
:10131000435F5F4FBE01695F7F4FCE0101960E9420
:101320009305CE0101960E94C104CE0107960E944A
:10133000C104CE010D960E94C104CE0143960E94C5
:10134000C1048091000190910101029799F561E03B
:1013500080E00E9445050E943C0580E10E94EB0070
:10136000019751F464EF71E080E090E00E949801F1
:1013700081E090E00E9494048FE00E94EB000197CE
:1013800051F4F0920101E092000164EF71E080E01D
:1013900090E00E9498018EE00E94EB00019751F4CA
:1013A000D0920101C092000164EF71E080E090E012
:1013B0000E9498018091000190910101039729F505
:1013C00062E080E00E9445050E943C0580E10E94A9
:1013D000EB00019751F464EF71E080E090E00E942F
:1013E000980182E090E00E9494048FE00E94EB005C
:1013F000019709F019C3D0920101C092000164EF76
:1014000071E080E090E00E9498018091000190914D
:101410000101049729F563E080E00E9445050E94E0
:101420003C0580E10E94EB00019751F464EF71E00C
:1014300080E090E00E94980183E090E00E94940494
:101440008FE00E94EB00019709F0F9C210930101AF
:101450000093000164EF71E080E090E00E94980149
:101460008091D302882309F46CCF6FE571E0CE013F
:1014700043960E94C90464E671E0CE010D960E9475
:10148000C9046BE671E0CE0107960E94C90462E8C8
:1014900071E0CE0101960E94C9049E012D5E3F4F6E
:1014A000AE01435F5F4FBE01695F7F4FCE01019682
:1014B0000E949305CE0101960E94C104CE010796B9
:1014C0000E94C104CE010D960E94C104CE01439634
:1014D0000E94C10410930101009300018091D30286
:1014E000882309F4A4C08091000190910101029722
:1014F00099F561E080E00E9445050E943C0580E18D
:101500000E94EB00019751F464EF71E080E090E0FD
:101510000E94980181E090E00E9474048FE00E9494
:10152000EB00019751F4F0920101E092000164EFA9
:1015300071E080E090E00E9498018EE00E94EB0054
:10154000019751F4D0920101C092000164EF71E063
:1015500080E090E00E94980180910001909101014B
:10156000039799F562E080E00E9445050E943C05E2
:1015700080E10E94EB00019751F464EF71E080E09C
:1015800090E00E94980182E090E00E9474048FE055
:101590000E94EB00019751F4D0920101C09200012A
:1015A00064EF71E080E090E00E9498018EE00E947C
:1015B000EB00019751F4109301010093000164EFD7
:1015C00071E080E090E00E9498018091000190918C
:1015D0000101049729F563E080E00E9445050E941F
:1015E0003C0580E10E94EB00019751F464EF71E04B
:1015F00080E090E00E94980183E090E00E947404F3
:101600008FE00E94EB00019709F024C210930101C2
:101610000093000164EF71E080E090E00E94980187
:101620008091D202882309F459CF1092D3026FE53A
:1016300071E0CE0143960E94C90464E671E0CE01D8
:101640000D960E94C9046BE671E0CE0107960E94D8
:10165000C90466E971E0CE0101960E94C9049E01A9
:101660002D5E3F4FAE01435F5F4FBE01695F7F4F0D
:10167000CE0101960E949305CE0101960E94C104FD
:10168000CE0107960E94C104CE010D960E94C104AE
:10169000CE0143960E94C104109301010093000102
:1016A0008091D202882309F4A4C080910001909116
:1016B0000101029799F561E080E00E9445050E94D2
:1016C0003C0580E10E94EB00019751F464EF71E06A
:1016D00080E090E00E94980181E090E00E94540434
:1016E0008FE00E94EB00019751F4F0920101E0922B
:1016F000000164EF71E080E090E00E9498018EE0CC
:101700000E94EB00019751F4D0920101C0920001B8
:1017100064EF71E080E090E00E9498018091000108
:1017200090910101039799F562E080E00E944505E0
:101730000E943C0580E10E94EB00019751F464EFA8
:1017400071E080E090E00E94980182E090E00E94C9
:1017500054048FE00E94EB00019751F4D0920101F4
:10176000C092000164EF71E080E090E00E94980177
:101770008EE00E94EB00019751F410930101009359
:10178000000164EF71E080E090E00E949801809198
:10179000000190910101049729F563E080E00E9427
:1017A00045050E943C0580E10E94EB00019751F441
:1017B00064EF71E080E090E00E94980183E090E0A7
:1017C0000E9454048FE00E94EB00019709F04DC184
:1017D000109301010093000164EF71E080E090E05C
:1017E0000E9498018091D102882309F459CF109268
:1017F000D20268EA71E0CE0143960E94C90467EB09
:1018000071E0CE010D960E94C90466EC71E0CE0134
:1018100007960E94C90465ED71E0CE0101960E9411
:10182000C9049E012D5E3F4FAE01435F5F4FBE0175
:10183000695F7F4FCE0101960E949305CE0101960C
:101840000E94C104CE0107960E94C104CE010D96EC
:101850000E94C104CE0143960E94C104109301016D
:10186000009300018091D102882309F4A2C08091E5
:10187000000190910101029799F561E080E00E94DA
:1018800045050E943C0580E10E94EB00019751F460
:1018900064EF71E080E090E00E94980182E390E0C4
:1018A0000E9401048FE00E94EB00019751F4F09236
:1018B0000101E092000164EF71E080E090E00E949D
:1018C00098018EE00E94EB00019751F4D092010143
:1018D000C092000164EF71E080E090E00E94980106
:1018E0008091000190910101039799F562E080E0F9
:1018F0000E9445050E943C0580E10E94EB00019793
:1019000051F464EF71E080E090E00E9498018CE374
:1019100090E00E9401048FE00E94EB00019751F4D7
:10192000D0920101C092000164EF71E080E090E08C
:101930000E9498018EE00E94EB00019751F41093F1
:1019400001010093000164EF71E080E090E00E94EB
:1019500098018091000190910101049729F563E0BD
:1019600080E00E9445050E943C0580E10E94EB005A
:10197000019751F464EF71E080E090E00E949801DB
:1019800086E490E00E9401048FE00E94EB00019742
:1019900009F076C0109301010093000164EF71E03B
:1019A00080E090E00E9498018091D002882309F4A1
:1019B00059CF10930101009300011092D3021092AD
:1019C000D2021092D1020E9475058091EF028E7FA3
:1019D0008093EF0288600E942B0561E082E00E9404
:1019E000450588EE91E00E94B40468EB7BE080E05E
:1019F00090E00E9498010E94750561E082E00E94DB
:101A0000450589EF91E00E94B40468EE73E080E040
:101A100090E00E9498010E947D05A114B10409F490
:101A200055CC0E9400004CCC8EE00E94EB00019748
:101A300009F016CD1093010100930001E0CC8EE077
:101A40000E94EB00019709F00BCDF0920101E092AA
:101A5000000100CD8EE00E94EB00019709F0E0CD7F
:101A6000F0920101E0920001D5CD8EE00E94EB00E2
:101A7000019709F0B7CEF0920101E0920001ACCEDF
:101A80008EE00E94EB00019709F08ECFF0920101E9
:101A9000E092000183CF052E97FB1EF400940E9474
:101AA000620D57FD07D00E94B40D07FC03D04EF421
:101AB0000C94620D50954095309521953F4F4F4FB6
:101AC0005F4F089590958095709561957F4F8F4FEA
:101AD0009F4F08950E94D60DA59F900DB49F900D25
:101AE000A49F800D911D11240895B7FF0C946A0DD9
:101AF0000E946A0D821B930B08952F923F924F9282
:101B00005F926F927F928F929F92AF92BF92CF928D
:101B1000DF92EF92FF920F931F93CF93DF93CDB796
:101B2000DEB7CA1BDB0B0FB6F894DEBF0FBECDBF0E
:101B300009942A88398848885F846E847D848C84DF
:101B40009B84AA84B984C884DF80EE80FD800C81E8
:101B50001B81AA81B981CE0FD11D0FB6F894DEBFCB
:101B60000FBECDBFED010895A1E21A2EAA1BBB1B2B
:101B7000FD010DC0AA1FBB1FEE1FFF1FA217B30759
:101B8000E407F50720F0A21BB30BE40BF50B661F6F
:101B9000771F881F991F1A9469F760957095809533
:101BA00090959B01AC01BD01CF010895A29FB001AA
:101BB000B39FC001A39F700D811D1124911DB29F81
:101BC000700D811D1124911D0895EE0FFF1F0590CA
:101BD000F491E02D09940F931F93CF93DF938230FC
:101BE000910510F482E090E0E091F702F091F802A4
:101BF00030E020E0B0E0A0E0309799F42115310505
:101C000009F44AC0281B390B24303105D8F58A81E4
:101C10009B816115710589F1FB0193838283FE012C
:101C200011C0408151810281138148175907E0F0AA
:101C30004817590799F4109761F012960C93129770
:101C400013961C933296CF01DF91CF911F910F9184
:101C500008950093F7021093F802F4CF211531058F
:101C600051F04217530738F0A901DB019A01BD0179
:101C7000DF01F801C1CFEF01F9CF9093F802809313
:101C8000F702CDCFFE01E20FF31F81939193225013
:101C9000310939832883D7CF2091F5023091F6029C
:101CA000232B41F420910401309105013093F60279
:101CB0002093F50220910201309103012115310595
:101CC00041F42DB73EB74091060150910701241B06
:101CD000350BE091F502F091F602E217F307A0F45C
:101CE0002E1B3F0B2817390778F0AC014E5F5F4F72
:101CF0002417350748F04E0F5F1F5093F6024093AC
:101D0000F502819391939FCFF0E0E0E09CCFCF93D9
:101D1000DF930097E9F0FC01329713821282A091C1
:101D2000F702B091F802ED0130E020E01097A1F445
:101D300020813181820F931F2091F5023091F602AC
:101D40002817390709F061C0F093F602E093F50215
:101D5000DF91CF910895EA01CE17DF07E8F54A81B8
:101D60005B819E0141155105B1F7E901FB83EA83CF
:101D700049915991C40FD51FEC17FD0761F480817B
:101D800091810296840F951FE9019983888382814E
:101D900093819B838A83F0E0E0E012968D919C9181
:101DA00013970097B9F52D913C911197CD010296AB
:101DB000820F931F2091F5023091F6022817390700
:101DC00039F6309751F51092F8021092F702B0935D
:101DD000F602A093F502BCCFD383C2834081518128
:101DE000840F951FC817D90761F44E5F5F4F888134
:101DF0009981480F591F518340838A819B81938326
:101E000082832115310509F0B0CFF093F802E093F9
:101E1000F7029ECFFD01DC01C0CF13821282D7CF23
:101E2000B0E0A0E0E6E1FFE00C947F0D8C010097AC
:101E300051F4CB010E94EB0D8C01C801CDB7DEB788
:101E4000E0E10C949B0DFC01E60FF71F9C01225072
:101E50003109E217F30708F49DC0D901CD91DC9157
:101E60001197C617D70798F0C530D10530F3CE01CA
:101E700004978617970708F3C61BD70B2297C193C1
:101E8000D1936D937C93CF010E94870ED6CF5B01D7
:101E9000AC1ABD0A4C018C0E9D1EA091F702B091A8
:101EA000F802512C412CF12CE12C109731F5809146
:101EB000F5029091F6028815990509F05CC0461666
:101EC000570608F058C080910201909103010097D5
:101ED00041F48DB79EB74091060150910701841BD4
:101EE000950BE817F90708F055C0F093F602E09358
:101EF000F502F90171836083A0CF8D919C911197B8
:101F000012966C90129713967C901397A815B905AA
:101F100059F56C0142E0C40ED11CCA14DB0420F157
:101F2000AC014A195B09DA011296159780F06282BA
:101F3000738251834083D9016D937C93E114F10442
:101F400071F0D7011396FC93EE93129776CF2296F9
:101F50008C0F9D1FF90191838083F301EFCFF093E4
:101F6000F802E093F70269CF4816590608F42C01ED
:101F70007D01D3019ACFCB010E94EB0D7C0100972C
:101F800049F0AE01B8010E94CD0FC8010E94870E32
:101F9000870153CF10E000E050CFFB01DC0102C00D
:101FA00001900D9241505040D8F70895FB01DC019B
:0E1FB00001900D920020E1F70895F894FFCF04
:101FBE0002000000F90280000000400014005400EE
:101FCE0000000000E802BB02FE03AD02B402B10243
:101FDE00AE0200000000CB058C00FE034602534DFE
:101FEE0041525420434F46464545204D41434849B2
:101FFE004E450050726573732053656C65637400B3
:10200E00746F206D616B6520636F66666565004851
:10201E00494748004D454449554D004C4F570053D4
:10202E00656C656374205375676172204C657665C7
:10203E006C0053656C65637420506F776465722015
:10204E004C6576656C0053656C656374204D696CE8
:10205E006B204C6576656C003730206465672063B5
:10206E00656C63697573003630206465672063653F
:10207E006C63697573003530206465672063656C29
:10208E00636975730053656C6563742054656D7078
:10209E0065726174757265004D616B696E67204380
:1020AE006F666665652E2E2E00436F66666565202B
:0A20BE006973205245414459210086
:00000001FF
