:100000000C945D000C9485000C9485000C94850084
:100010000C9485000C9485000C9485000C9485004C
:100020000C9485000C9485000C9485000C947D0242
:100030000C9485000C9485000C9485000C9485002C
:100040000C9433020C9485000C9485000C9485006C
:100050000C9485000C9485000C9485000C9485000C
:100060000C9485000C9485000000000024002700FB
:100070002A0000000000250028002B0004040404CE
:100080000404040402020202020203030303030342
:10009000010204081020408001020408102001021F
:1000A00004081020000000080002010000030407FB
:1000B0000000000000000000500411241FBECFEF1C
:1000C000D8E0DEBFCDBF11E0A0E0B1E0E6EAF9E0A4
:1000D00002C005900D92A030B107D9F721E0A0E051
:1000E000B1E001C01D92AA33B207E1F710E0CDE5FF
:1000F000D0E004C02197FE010E94CB04CC35D1078B
:10010000C9F70E9454030C94D1040C94000090E0B1
:10011000FC01EC55FF4F2491FC01E057FF4F349157
:10012000FC01E458FF4FE491EE23C9F0222339F09B
:10013000233001F1A8F4213019F1223029F1F0E047
:10014000EE0FFF1FEE58FF4FA591B4918FB7F894B3
:10015000EC91611126C030953E233C938FBF0895EA
:100160002730A9F02830C9F0243049F78091800069
:100170008F7D03C0809180008F7780938000DFCFD8
:1001800084B58F7784BDDBCF84B58F7DFBCF809125
:10019000B0008F778093B000D2CF8091B0008F7D78
:1001A000F9CF3E2BDACFCF93DF9390E0FC01E057FD
:1001B000FF4F249184589F4FFC0184918823D1F0F4
:1001C00090E0880F991FFC01E859FF4FA591B49169
:1001D000FC01EE58FF4FC591D49161110EC09FB73D
:1001E000F8948C91E22FE0958E238C932881E22362
:1001F000E8839FBFDF91CF9108958FB7F894EC917A
:10020000E22BEC938FBFF6CF3FB7F89480912B0190
:1002100090912C01A0912D01B0912E0126B5A89BA3
:1002200005C02F3F19F00196A11DB11D3FBFBA2F88
:10023000A92F982F8827BC01CD01620F711D811D48
:10024000911D42E0660F771F881F991F4A95D1F7CD
:1002500008958F929F92AF92BF92CF92DF92EF92CA
:10026000FF924B015C010E9404016B017C010E9422
:1002700004016C197D098E099F09683E7340810550
:100280009105A8F321E0821A9108A108B10888EE2F
:10029000C80E83E0D81EE11CF11C81149104A10456
:1002A000B10429F7FF90EF90DF90CF90BF90AF900F
:1002B0009F908F900895CF92DF92EF92FF92CF930D
:1002C000DF93EC01603282E07807CCF5653B710585
:1002D00014F064EB70E0898128E830E0281B3109D4
:1002E00087FD3395220F331F220F331F6901330F10
:1002F000EE08FF088A8128E532E0281B310987FDD6
:100300003395220F331F220F331F032E000C440B93
:10031000550B2C193D094E095F09DB0177FF02C01F
:10032000B0E0A0E00E94860424EB30E040E050E022
:100330000E945C04C20ED31EE41EF51EB601E881C5
:10034000EC3070F5298188E890E0821B910927FD47
:100350009395880F991F880F991F681779077CF06C
:100360002A8188E592E0821B910927FD9395880FE9
:10037000991F880F991F681779070CF4CB01029712
:10038000880F991F4FB7F8942E2F30E0F901EE0F28
:10039000FF1FE20FF31FEE5FFE4F928381834FBF7B
:1003A000DF91CF91FF90EF90DF90CF9008951F9352
:1003B000CF93DF93EC01162F88818C3008F04EC06C
:1003C00061E0812F0E94D3008881282F30E0F9015D
:1003D000EE0FFF1FE20FF31FEE5FFE4F1F736081F2
:1003E000607C612B608319821A822CE0622F0E944C
:1003F000BF04829FB001112430E020E0AB01420F26
:10040000531FFA01EE0FFF1FE40FF51FEE5FFE4FC3
:10041000908196FD16C02F5F3F4F2C30310571F74C
:1004200081110FC01092800082E0809381001092B1
:10043000850010928400B19A80916F008260809351
:100440006F00E8818E2F90E0FC01EE0FFF1FE80F98
:10045000F91FEE5FFE4F8081806480838881DF9189
:10046000CF911F9108951F920F920FB60F921124F2
:100470002F933F938F939F93AF93BF9380912701C7
:1004800090912801A0912901B0912A013091260173
:1004900023E0230F2D3758F50196A11DB11D2093A0
:1004A00026018093270190932801A0932901B093FE
:1004B0002A0180912B0190912C01A0912D01B091E6
:1004C0002E010196A11DB11D80932B0190932C014B
:1004D000A0932D01B0932E01BF91AF919F918F9169
:1004E0003F912F910F900FBE0F901F90189526E807
:1004F000230F0296A11DB11DD2CF1F920F920FB6EE
:100500000F9211242F933F934F935F936F937F9399
:100510008F939F93AF93BF93CF93DF93EF93FF930B
:1005200080910001C0910101D0E087FF24C01092AA
:10053000850010928400809100018F5F80930001FC
:1005400080910001082E000C990B8C179D0724F454
:10055000809100018C30C4F18091840090918500DD
:10056000049680349C4908F47AC08091840090916C
:100570008500049676C080910001082E000C990B2E
:100580008C179D07C4F6E09100018E2FEE0F990B9A
:10059000FC01EE0FFF1FE80FF91FEE5FFE4F808199
:1005A00086FFC9CFE09100018E2FEE0F990BFC0161
:1005B000EE0FFF1FE80FF91FEE5FFE4F808160E036
:1005C0008F730E948700B7CF2091840030918500FF
:1005D000E09100018E2FEE0F990BFC01EE0FFF1F33
:1005E000E80FF91FEE5FFE4F81819281820F931F0A
:1005F0009093890080938800E09100018E2FEE0F88
:10060000990BFC01EE0FFF1FE80FF91FEE5FFE4F85
:10061000808186FF11C0E09100018E2FEE0F990BB3
:10062000FC01EE0FFF1FE80FF91FEE5FFE4F808108
:1006300061E08F730E948700FF91EF91DF91CF916E
:10064000BF91AF919F918F917F916F915F914F91EA
:100650003F912F910F900FBE0F901F90189580E43F
:100660009CE990938900809388008FEF809300012C
:10067000E3CFFC01909101019C3098F481E0890F57
:10068000809301019083892F90E0FC01EE0FFF1F02
:10069000E80FF91FEE5FFE4F88EB9BE092838183AA
:1006A00008958FEF80830895789484B5826084BD27
:1006B00084B5816084BD85B5826085BD85B5816066
:1006C00085BD80916E00816080936E0010928100E4
:1006D000809181008260809381008091810081609F
:1006E0008093810080918000816080938000809160
:1006F000B10084608093B1008091B00081608093EC
:10070000B00080917A00846080937A0080917A00B2
:10071000826080937A0080917A00816080937A0071
:1007200080917A00806880937A001092C10061E025
:1007300070E084E391E00E94D70162E070E087E31B
:1007400091E00E94D70163E070E081E391E00E94B4
:10075000D70170E060E084E391E00E945B0170E00B
:1007600060E087E391E00E945B0170E060E081E37C
:1007700091E00E945B0160E085E00E94D30061E0AF
:1007800083E00E94D30061E086E00E94D30061E034
:100790008CE00E94D30061E08DE00E94D30015E45C
:1007A00080E0E82E80E0F82E6CE370E087E391E0D3
:1007B0000E945B0164E670E080E090E00E94290105
:1007C00070E060E087E391E00E945B0164E670E026
:1007D00080E090E00E9429016CE370E084E391E006
:1007E0000E945B0164E670E080E090E00E942901D5
:1007F00070E060E084E391E00E945B0164E670E0F9
:1008000080E090E00E9429016CE370E081E391E0D8
:100810000E945B0164E670E080E090E00E942901A4
:1008200070E060E081E391E00E945B0164E670E0CB
:1008300080E090E00E94290110937C0080917A0072
:10084000806480937A0080917A0086FDFCCF80914D
:100850007800C0917900DC2FC82FD0933001C0936D
:100860002F01CD33D1052CF461E08DE00E9487008B
:10087000F8CF60E08DE00E94870060ED77E080E0D7
:1008800090E00E94290160E177E280E090E00E9420
:100890002901E114F10409F487CF0E94000084CFFC
:1008A00087E391E00E94390384E391E00E943903D9
:1008B00081E391E00C943903052E97FB1EF400941C
:1008C0000E94730457FD07D00E948E0407FC03D0DA
:1008D0004EF40C94730450954095309521953F4FFC
:1008E0004F4F5F4F089590958095709561957F4F1C
:1008F0008F4F9F4F08950E94B004A59F900DB49F05
:10090000900DA49F800D911D11240895B7FF0C94A4
:100910007B040E947B04821B930B0895A1E21A2E94
:10092000AA1BBB1BFD010DC0AA1FBB1FEE1FFF1F93
:10093000A217B307E407F50720F0A21BB30BE40BE3
:10094000F50B661F771F881F991F1A9469F760952A
:100950007095809590959B01AC01BD01CF010895E4
:10096000A29FB001B39FC001A39F700D811D1124F0
:10097000911DB29F700D811D1124911D0895991B29
:1009800079E004C0991F961708F0961B881F7A9586
:10099000C9F780950895EE0FFF1F0590F491E02DA3
:0609A0000994F894FFCF5A
:00000001FF
